:020000040800F2
:10000000000001205D3A0008613800086D380008E2
:1000100073380008793800087F38000800000000B5
:10002000000000000000000000000000853800080B
:1000300091380008000000009D380008A938000829
:10004000A53A0008A53A0008A53A0008A53A000814
:10005000A53A0008A53A0008A53A0008A53A000804
:10006000A53A0008A53A0008A53A0008A53A0008F4
:10007000A53A0008A53A0008A53A0008A53A0008E4
:10008000B5380008A53A0008A53A0008A53A0008C6
:10009000A53A0008A53A0008A53A0008A53A0008C4
:1000A000A53A0008A53A0008A53A0008A53A0008B4
:1000B000A53A0008C9380008A53A0008A53A000882
:1000C000A53A0008A53A0008A53A0008A53A000894
:1000D000A53A0008A53A0008DD380008A53A00084E
:1000E000A53A0008A53A0008A53A0008A53A000874
:1000F000A53A0008A53A0008A53A0008A53A000864
:10010000A53A0008A53A0008A53A0008A53A000853
:10011000A53A0008A53A0008A53A0008A53A000843
:10012000A53A0008A53A0008A53A0008A53A000833
:1001300000000000000000000000000000000000BF
:1001400000000000000000000000000000000000AF
:10015000000000000000000000000000000000009F
:10016000000000000000000000000000000000008F
:10017000000000000000000000000000000000007F
:10018000000000000000000000000000000000006F
:10019000000000000000000000000000000000005F
:1001A000000000000000000000000000000000004F
:1001B000000000000000000000000000000000003F
:1001C000000000000000000000000000000000002F
:1001D000000000000000000000000000000000001F
:0401E0005FF8E0F1F3
:1001E40010B5054C237833B9044B13B10448AFF36D
:1001F40000800123237010BDF000002000000000E7
:10020400C843000808B5034B1BB103490348AFF3C7
:10021400008008BD00000000F4000020C84300086E
:10022400034613F8012B002AFBD1181A0138704732
:1002340080B500AF084B1B68074A43F010031360F6
:10024400032000F047F9002000F008F803F004FA56
:100254000023184680BD00BF0020024080B582B054
:1002640000AF7860124B1A68124B1B7819464FF492
:100274007A73B3FBF1F3B2FBF3F3184600F05FF9C2
:100284000346002B01D001230EE07B680F2B0AD814
:10029400002279684FF0FF3000F027F9064A7B68A6
:1002A4001360002300E0012318460837BD4680BDD3
:1002B40088000020040000200000002080B400AF6B
:1002C400054B1B781A46054B1B681344034A1360FD
:1002D40000BFBD4680BC7047040000200C01002014
:1002E40080B400AF024B1B681846BD4680BC704703
:1002F4000C01002080B584B000AF7860FFF7F0FFF8
:10030400B8607B68FB60FB68B3F1FF3F05D00A4B24
:100314001B781A46FB681344FB6000BFFFF7E0FF3D
:100324000246BB68D31AFA689A42F7D800BF00BFE6
:100334001037BD4680BD00BF0400002080B485B0E6
:1003440000AF78607B6803F00703FB600C4BDB684D
:10035400BB60BA684FF6FF031340BB60FB681A0228
:10036400BB68134343F0BF6343F40033BB60044AE8
:10037400BB68D36000BF1437BD4680BC704700BF64
:1003840000ED00E080B400AF044BDB681B0A03F00F
:1003940007031846BD4680BC704700BF00ED00E06F
:1003A40080B483B000AF0346FB7197F90730002B8C
:1003B4000BDBFB7903F01F02064997F907305B0951
:1003C400012000FA02F241F8232000BF0C37BD4699
:1003D40080BC704700E100E080B483B000AF034606
:1003E4003960FB7197F90730002B0ADB3B68DAB2FE
:1003F4000C4997F907301201D2B20B4483F8002359
:100404000AE03B68DAB20849FB7903F00F03043BC6
:100414001201D2B20B441A7600BF0C37BD4680BC21
:10042400704700BF00E100E000ED00E080B489B057
:1004340000AFF860B9607A60FB6803F00703FB6102
:10044400FB69C3F10703042B28BF0423BB61FB69C9
:100454000433062B02D9FB69033B00E000237B61D4
:100464004FF0FF32BB6902FA03F3DA43BB681A4068
:100474007B699A404FF0FF317B6901FA03F3D9435A
:100484007B680B40134318462437BD4680BC704735
:1004940080B582B000AF78607B68013BB3F1807FA8
:1004A40001D301230FE00A4A7B68013B53600F210B
:1004B4004FF0FF30FFF790FF054B00229A60044B8A
:1004C40007221A60002318460837BD4680BD00BFC6
:1004D40010E000E080B582B000AF78607868FFF784
:1004E4002DFF00BF0837BD4680BD80B586B000AF84
:1004F4000346B9607A60FB7300237B61FFF742FF18
:1005040078617A68B9687869FFF790FF024697F9CD
:100514000F3011461846FFF75FFF00BF1837BD467E
:1005240080BD80B582B000AF0346FB7197F90730F8
:100534001846FFF735FF00BF0837BD4680BD80B5BC
:1005440082B000AF78607868FFF7A2FF03461846D0
:100554000837BD4680BD000080B485B000AF786028
:100564000023FB607B68002B01D1012359E07B68E9
:100574001B681A462D4B9A420FD87B681B681A4693
:100584002B4B13442B4AA2FB03231B099A007B68C1
:100594001A647B68284ADA630EE07B681B681A4693
:1005A400264B1344234AA2FB03231B099A007B68AE
:1005B4001A647B68224ADA637B68022283F821206A
:1005C4007B681B681B68FB60FB6823F47F5323F084
:1005D4003003FB607B685A687B689B681A437B68BE
:1005E400DB681A437B681B691A437B685B691A439F
:1005F4007B689B691A437B68DB691343FA6813437E
:10060400FB607B681B68FA681A607B6800229A6347
:100614007B68012283F821207B68002283F8202054
:10062400002318461437BD4680BC704707040240B7
:10063400F8FFFDBFCDCCCCCC00000240F8FBFDBFE1
:100644000004024080B586B000AFF860B9607A60FB
:100654003B600023FB75FB6893F82030012B01D12C
:1006640002234AE0FB68012283F82020FB6893F808
:100674002130012B3AD1FB68022283F82120FB6848
:1006840000229A63FB681B681A68FB681B6822F0E7
:1006940001021A603B687A68B968F86800F0B0FB38
:1006A400FB68DB6A002B08D0FB681B681A68FB68D0
:1006B4001B6842F00E021A600FE0FB681B681A68A0
:1006C400FB681B6822F004021A60FB681B681A6846
:1006D400FB681B6842F00A021A60FB681B681A6810
:1006E400FB681B6842F001021A6005E0FB68002207
:1006F40083F820200223FB75FB7D18461837BD467E
:1007040080BD80B485B000AF78600023FB737B6844
:1007140093F82130022B08D07B6804229A637B680B
:10072400002283F82020012320E07B681B681A68DC
:100734007B681B6822F00E021A607B681B681A68CB
:100744007B681B6822F001021A607B681A6C7B6864
:10075400DB6B012101FA02F25A607B68012283F803
:1007640021207B68002283F82020FB7B1846143765
:10077400BD4680BC7047000080B584B000AF78608F
:100784000023FB737B6893F82130022B05D07B6830
:1007940004229A630123FB73D6E07B681B681A6802
:1007A4007B681B6822F00E021A607B681B681A685B
:1007B4007B681B6822F001021A607B681B681A467A
:1007C400644B9A4258D97B681B68634A93424FD062
:1007D4007B681B68614A934248D07B681B68604A07
:1007E400934240D07B681B685E4A934238D07B6852
:1007F4001B685D4A934230D07B681B685B4A934216
:1008040028D07B681B68534A934220D07B681B68BE
:10081400574A934219D07B681B68564A934212D0B8
:100824007B681B68544A93420AD07B681B68534A0E
:10083400934202D14FF480531BE04FF4803318E00D
:100844004FF4807315E0102313E0012311E04FF0FF
:1008540080730EE04FF480130BE04FF4803308E014
:100864004FF4805305E04FF4807302E0102300E05E
:100874000123434A536057E07B681B68364A93421E
:100884004FD07B681B68354A934248D07B681B680D
:10089400334A934240D07B681B68324A934238D033
:1008A4007B681B68304A934230D07B681B682F4AB0
:1008B400934228D07B681B68264A934220D07B68E9
:1008C4001B682B4A934219D07B681B68294A9342C0
:1008D40012D07B681B68284A93420AD07B681B6845
:1008E400264A934202D14FF480531BE04FF48033E5
:1008F40018E04FF4807315E0102313E0012311E096
:100904004FF080730EE04FF480130BE04FF480330C
:1009140008E04FF4805305E04FF4807302E01023A5
:1009240000E00123174A53607B68012283F82120E9
:100934007B68002283F820207B685B6B002B03D04C
:100944007B685B6B78689847FB7B18461037BD461D
:1009540080BD00BF80000240080002401C0002402D
:100964003000024044000240580002406C00024043
:10097400080402401C0402403004024044040240C3
:10098400000402400000024080B584B000AF7860EB
:100994007B68DB6B1B68FB607B681B681B68BB6048
:1009A4007B681B6C04229A40FB681340002B00F008
:1009B400D680BB6803F00403002B00F0D0807B6872
:1009C4001B681B6803F02003002B07D17B681B689E
:1009D4001A687B681B6822F004021A607B681B6833
:1009E4001A469B4B9A4258D97B681B68994A934292
:1009F4004FD07B681B68984A934248D07B681B6839
:100A0400964A934240D07B681B68954A934238D0FB
:100A14007B681B68934A934230D07B681B68924A78
:100A2400934228D07B681B68894A934220D07B6814
:100A34001B688E4A934219D07B681B688C4A934288
:100A440012D07B681B688B4A93420AD07B681B6870
:100A5400894A934202D14FF480431BE04FF4802330
:100A640018E04FF4806315E0402313E0042311E001
:100A74004FF080630EE04FF480030BE04FF48023CB
:100A840008E04FF4804305E04FF4806302E0402324
:100A940000E00423794A536057E07B681B686D4A81
:100AA40093424FD07B681B686B4A934248D07B6863
:100AB4001B686A4A934240D07B681B68684A934229
:100AC40038D07B681B68674A934230D07B681B68C8
:100AD400654A934228D07B681B685D4A934220D0C4
:100AE4007B681B68614A934219D07B681B68604A23
:100AF400934212D07B681B685E4A93420AD07B689B
:100B04001B685D4A934202D14FF480431BE04FF4CB
:100B1400802318E04FF4806315E0402313E004239E
:100B240011E04FF080630EE04FF480030BE04FF4CC
:100B3400802308E04FF4804305E04FF4806302E033
:100B4400402300E004234E4A53607B68DB6A002B99
:100B540000F036817B68DB6A7868984730E17B680F
:100B64001B6C02229A40FB681340002B00F0F880B3
:100B7400BB6803F00203002B00F0F2807B681B6863
:100B84001B6803F02003002B0BD17B681B681A68D9
:100B94007B681B6822F00A021A607B68012283F8D2
:100BA40021207B681B681A46294B9A4273D97B68BB
:100BB4001B68284A93426AD07B681B68264A934282
:100BC40063D07B681B68254A93425BD07B681B68B3
:100BD400234A934238D07B681B68224A934230D020
:100BE4007B681B68204A934228D07B681B68184A9C
:100BF400934220D07B681B681C4A934219D07B68BF
:100C04001B681B4A934212D07B681B68194A9342A3
:100C14000AD07B681B68184A934202D14FF40053F0
:100C240036E04FF4003333E04FF4007330E0202318
:100C34002EE002232CE04FF0007329E04FF4001360
:100C440026E04FF4003323E04FF4005320E000BFCC
:100C540080000240080002401C00024030000240B4
:100C640044000240580002406C0002400804024064
:100C74001C040240300402404404024000040240C8
:100C8400000002404FF4007302E0202300E002233E
:100C94004E4A536057E07B681B684D4A93424FD0DD
:100CA4007B681B684B4A934248D07B681B684A4A5E
:100CB400934240D07B681B68484A934238D07B6893
:100CC4001B68474A934230D07B681B68454A93426D
:100CD40028D07B681B68444A934220D07B681B68F9
:100CE400424A934219D07B681B68414A934212D00E
:100CF4007B681B683F4A93420AD07B681B683E4A64
:100D0400934202D14FF400531BE04FF4003318E038
:100D14004FF4007315E0202313E0022311E04FF099
:100D240000730EE04FF400130BE04FF4003308E0BF
:100D34004FF4005305E04FF4007302E0202300E079
:100D440002232E4A53607B68002283F820207B68AC
:100D54009B6A002B34D07B689B6A786898472FE0A5
:100D64007B681B6C08229A40FB681340002B28D038
:100D7400BB6803F00803002B23D07B681B681A6848
:100D84007B681B6822F00E021A607B681A6C7B6811
:100D9400DB6B012101FA02F25A607B6801229A633B
:100DA4007B68012283F821207B68002283F82020BD
:100DB4007B681B6B002B04D07B681B6B786898479F
:100DC40000BF00BF1037BD4680BD00BF0004024015
:100DD400080002401C00024030000240440002406F
:100DE400580002406C0002408000024008040240A7
:100DF4001C0402403004024044040240000002404B
:100E040080B485B000AFF860B9607A603B60FB687D
:100E14001A6CFB68DB6B012101FA02F25A60FB6871
:100E24001B683A685A60FB685B68102B08D1FB6842
:100E34001B687A689A60FB681B68BA68DA6007E026
:100E4400FB681B68BA689A60FB681B687A68DA609A
:100E540000BF1437BD4680BC7047000080B48BB01F
:100E640000AF7860396000237B6200233B6279E144
:100E740001227B6A02FA03F3FB613B681B68FA698F
:100E84001340BB61BA69FB699A4240F068813B68D0
:100E94005B68A04A93425ED09E4A934275D89E4AAC
:100EA400934258D09C4A93426FD89C4A934252D062
:100EB4009A4A934269D89A4A93424CD0984A9342A8
:100EC40063D8984A934246D0964A93425DD8122BEF
:100ED4002AD8122B59D801A252F823F05B0F00082C
:100EE400350F0008470F0008890F00088F0F00080E
:100EF4008F0F00088F0F00088F0F00088F0F000856
:100F04008F0F00088F0F00088F0F00088F0F000845
:100F14008F0F00088F0F00088F0F00088F0F000835
:100F24003D0F0008510F00087F4A934213D02CE074
:100F34003B68DB683B6229E03B68DB6804333B6267
:100F440024E03B68DB6808333B621FE03B68DB68F6
:100F54000C333B621AE03B689B68002B02D10423EC
:100F64003B6213E03B689B68012B05D108233B627D
:100F74007B68FA691A6109E008233B627B68FA69B5
:100F84005A6103E000233B6200E000BFBB69FF2B12
:100F940001D87B6801E07B6804337B61BB69FF2B6C
:100FA40002D87B6A9B0002E07B6A083B9B003B61A2
:100FB4007B691A680F213B6901FA03F3DB431A408A
:100FC400396A3B6901FA03F31A437B691A603B6887
:100FD4005B6803F08053002B00F0C180534B9B6986
:100FE400524A43F001039361504B9B6903F00103A0
:100FF400BB60BB684E4A7B6A9B08023352F82330BD
:10100400FB607B6A03F003039B000F2202FA03F3E5
:10101400DB43FA681340FB607B68464A93421FD067
:101024007B68454A934219D07B68444A934213D063
:101034007B68434A93420DD07B68424A934207D06F
:101044007B68414A934201D105230AE0062308E064
:10105400042306E0032304E0022302E0012300E06A
:1010640000237A6A02F0030292009340FA68134361
:10107400FB602F497B6A9B080233FA6841F82320FE
:101084003B685B6803F48033002B06D02F4B1A684F
:101094002E49BB6913430B6006E02C4B1A68BB69ED
:1010A400DB432A4913400B603B685B6803F400335D
:1010B400002B06D0254B5A682449BB6913434B6067
:1010C40006E0224B5A68BB69DB43204913404B605E
:1010D4003B685B6803F48013002B06D01B4B9A68B3
:1010E4001A49BB6913438B6006E0184B9A68BB69C5
:1010F400DB43164913408B603B685B6803F40013C1
:10110400002B25D0114BDA681049BB691343CB601F
:1011140025E000BF00003210000031100000221052
:1011240000002110000012100000111000100240F5
:101134000000014000080140000C01400010014083
:101144000014014000180140001C0140000401404B
:101154000B4BDA68BB69DB4309491340CB607B6AFC
:1011640001337B623B681A687B6A22FA03F3002B23
:101174007FF47EAE00BF00BF2C37BD4680BC7047F5
:101184000004014080B483B000AF78600B467B80DC
:1011940013467B707B78002B03D07A887B681A61B6
:1011A40003E07B881A047B681A6100BF0C37BD46D4
:1011B40080BC704780B586B000AF78607B68002B38
:1011C40001D101236CE27B681B6803F00103002B4F
:1011D40000F08780924B5B6803F00C03042B0CD067
:1011E4008F4B5B6803F00C03082B12D18C4B5B68AC
:1011F40003F48033B3F5803F0BD1894B1B6803F4B0
:101204000033002B6CD07B685B68002B68D1012312
:1012140046E27B685B68B3F5803F06D1804B1B6870
:101224007F4A43F4803313602EE07B685B68002BB5
:101234000CD17B4B1B687A4A23F480331360784BC0
:101244001B68774A23F4802313601DE07B685B6886
:10125400B3F5A02F0CD1724B1B68714A43F4802361
:1012640013606F4B1B686E4A43F4803313600BE0CA
:101274006B4B1B686A4A23F480331360684B1B680A
:10128400674A23F4802313607B685B68002B13D0C8
:10129400FFF726F8386108E0FFF722F802463B69B9
:1012A400D31A642B01D90323FAE15D4B1B6803F4C1
:1012B4000033002BF0D014E0FFF712F8386108E097
:1012C400FFF70EF802463B69D31A642B01D90323B6
:1012D400E6E1534B1B6803F40033002BF0D100E02C
:1012E40000BF7B681B6803F00203002B63D04C4BE8
:1012F4005B6803F00C03002B0BD0494B5B6803F0D5
:101304000C03082B1CD1464B5B6803F48033002B81
:1013140016D1434B1B6803F00203002B05D07B68F6
:101324001B69012B01D00123BAE13D4B1B6823F05B
:10133400F8027B685B69DB00394913430B603AE0D0
:101344007B681B69002B20D0364B01221A60FEF704
:10135400C7FF386108E0FEF7C3FF02463B69D31AB2
:10136400022B01D903239BE12D4B1B6803F00203DD
:10137400002BF0D02A4B1B6823F0F8027B685B69D2
:10138400DB00274913430B6015E0264B00221A604B
:10139400FEF7A6FF386108E0FEF7A2FF02463B69AC
:1013A400D31A022B01D903237AE11D4B1B6803F0E6
:1013B4000203002BF0D17B681B6803F00803002BA9
:1013C4003AD07B689B69002B19D0174B01221A6015
:1013D400FEF786FF386108E0FEF782FF02463B69AC
:1013E400D31A022B01D903235AE10D4B5B6A03F094
:1013F4000203002BF0D0012000F0D8FA1CE00A4BC5
:1014040000221A60FEF76CFF38610FE0FEF768FFF8
:1014140002463B69D31A022B08D9032340E100BFDB
:101424000010024000004242800442429E4B5B6A2C
:1014340003F00203002BE9D17B681B6803F004036B
:10144400002B00F0A6800023FB75974BDB6903F0AB
:101454008053002B0DD1944BDB69934A43F08053A6
:10146400D361914BDB6903F08053BB60BB680123FC
:10147400FB758E4B1B6803F48073002B18D18B4BC8
:101484001B688A4A43F480731360FEF729FF3861AE
:1014940008E0FEF725FF02463B69D31A642B01D905
:1014A4000323FDE0814B1B6803F48073002BF0D011
:1014B4007B68DB68012B06D17B4B1B6A7A4A43F0BD
:1014C400010313622DE07B68DB68002B0CD1764BA3
:1014D4001B6A754A23F001031362734B1B6A724A39
:1014E40023F0040313621CE07B68DB68052B0CD13A
:1014F4006D4B1B6A6C4A43F0040313626A4B1B6A0C
:10150400694A43F0010313620BE0674B1B6A664AA6
:1015140023F001031362644B1B6A634A23F0040340
:1015240013627B68DB68002B15D0FEF7D9FE3861A7
:101534000AE0FEF7D5FE02463B69D31A41F288322F
:10154400934201D90323ABE0574B1B6A03F0020318
:10155400002BEED014E0FEF7C3FE38610AE0FEF77C
:10156400BFFE02463B69D31A41F28832934201D945
:10157400032395E04C4B1B6A03F00203002BEED1CE
:10158400FB7D012B05D1484BDB69474A23F080538F
:10159400D3617B68DB69002B00F08180424B5B6880
:1015A40003F00C03082B61D07B68DB69022B46D166
:1015B4003F4B00221A60FEF793FE386108E0FEF705
:1015C4008FFE02463B69D31A022B01D9032367E03D
:1015D400354B1B6803F00073002BF0D17B681B6A4A
:1015E400B3F5803F08D1304B5B6823F400327B684D
:1015F4009B682D4913434B602B4B5B6823F4741297
:101604007B68196A7B685B6A0B43274913434B6009
:10161400274B01221A60FEF763FE386108E0FEF7EB
:101624005FFE02463B69D31A022B01D9032337E03C
:101634001D4B1B6803F00073002BF0D02FE01C4BF4
:1016440000221A60FEF74CFE386108E0FEF748FEFF
:1016540002463B69D31A022B01D9032320E0124B23
:101664001B6803F00073002BF0D118E07B68DB6982
:10167400012B01D1012313E00B4B5B68FB60FB687A
:1016840003F480327B681B6A9A4206D1FB6803F438
:1016940070127B685B6A9A4201D0012300E0002348
:1016A40018461837BD4680BD001002400070004047
:1016B4006000424280B584B000AF786039607B68D6
:1016C400002B01D10123D0E06A4B1B6803F0070310
:1016D4003A689A4210D9674B1B6823F007026549A0
:1016E4003B6813430B60634B1B6803F007033A68C2
:1016F4009A4201D00123B8E07B681B6803F002031F
:10170400002B20D07B681B6803F00403002B05D05A
:10171400594B5B68584A43F4E06353607B681B6829
:1017240003F00803002B05D0534B5B68524A43F483
:1017340060535360504B5B6823F0F0027B689B68F6
:101744004D4913434B607B681B6803F00103002B76
:1017540040D07B685B68012B07D1474B1B6803F4BF
:101764000033002B15D101237FE07B685B68022BDB
:1017740007D1414B1B6803F00073002B09D10123EF
:1017840073E03D4B1B6803F00203002B01D10123DE
:101794006BE0394B5B6823F003027B685B68364976
:1017A40013434B60FEF79CFDF8600AE0FEF798FDDA
:1017B4000246FB68D31A41F28832934201D90323CB
:1017C40053E02D4B5B6803F00C027B685B689B0065
:1017D4009A42EBD1274B1B6803F007033A689A42FD
:1017E40010D2244B1B6823F0070222493B681343A1
:1017F4000B60204B1B6803F007033A689A4201D040
:10180400012332E07B681B6803F00403002B08D03B
:10181400194B5B6823F4E0627B68DB681649134369
:101824004B607B681B6803F00803002B09D0124B44
:101834005B6823F460527B681B69DB000E49134329
:101844004B6000F021F802460B4B5B681B0903F068
:101854000F030A49CB5C22FA03F3094A1360094BCC
:101864001B681846FEF7FAFC002318461037BD46DD
:1018740080BD00BF00200240001002402444000844
:10188400880000200000002090B48AB000AF2A4BEA
:101894003C1D0FCB84E80F0040F201233B80002362
:1018A400FB610023BB6100237B6200237B61002377
:1018B4003B62224B5B68FB61FB6903F00C03042B66
:1018C40002D0082B03D02DE01D4B3B622DE0FB69B9
:1018D4009B0C03F00F0307F12802134413F8243C74
:1018E4007B61FB6903F48033002B13D0134B5B68DB
:1018F4005B0C03F0010307F12802134413F8283C9E
:10190400BB617B690E4A02FB03F2BB69B2FBF3F3D2
:101914007B6204E07B690B4A02FB03F37B627B6A14
:101924003B6202E0064B3B6200BF3B6A1846283725
:10193400BD4690BC704700BFE04300080010024061
:1019440000127A0000093D0080B400AF024B1B680E
:101954001846BD4680BC70478800002080B500AFA3
:10196400FFF7F2FF0246054B5B681B0A03F007030F
:101974000349CB5C22FA03F3184680BD00100240F1
:101984003444000880B500AFFFF7DEFF0246054B84
:101994005B68DB0A03F007030349CB5C22FA03F319
:1019A400184680BD001002403444000880B485B05D
:1019B40000AF78600A4B1B680A4AA2FB03235B0A48
:1019C4007A6802FB03F3FB6000BFFB685A1EFA60EF
:1019D400002BF9D100BF00BF1437BD4680BC70474F
:1019E40088000020D34D621080B582B000AF7860CB
:1019F4007B68002B01D101231DE07B6893F83D3007
:101A0400DBB2002B06D17B68002283F83C20786887
:101A140001F050FE7B68022283F83D207B681A683F
:101A24007B6804331946104600F01CFA7B680122D7
:101A340083F83D20002318460837BD4680BD80B496
:101A440085B000AF78607B681B68DA687B681B68C8
:101A540042F00102DA607B681B689B6803F00703AD
:101A6400FB60FB68062B07D07B681B681A687B68E1
:101A74001B6842F001021A60002318461437BD4661
:101A840080BC704780B582B000AF78607B681B680B
:101A94001B6903F00203022B22D17B681B68DB68FD
:101AA40003F00203022B1BD17B681B686FF0020258
:101AB4001A617B6801221A777B681B689B6903F0B3
:101AC4000303002B03D0786800F0B1F905E07868CF
:101AD40000F0A4F9786800F0B3F97B6800221A7763
:101AE4007B681B681B6903F00403042B22D17B6809
:101AF4001B68DB6803F00403042B1BD17B681B68A1
:101B04006FF004021A617B6802221A777B681B68F3
:101B14009B6903F44073002B03D0786800F087F9C5
:101B240005E0786800F07AF9786800F089F97B6854
:101B340000221A777B681B681B6903F00803082BD3
:101B440022D17B681B68DB6803F00803082B1BD1D8
:101B54007B681B686FF008021A617B6804221A779D
:101B64007B681B68DB6903F00303002B03D07868F0
:101B740000F05DF905E0786800F050F9786800F04D
:101B84005FF97B6800221A777B681B681B6903F086
:101B94001003102B22D17B681B68DB6803F0100351
:101BA400102B1BD17B681B686FF010021A617B68D5
:101BB40008221A777B681B68DB6903F44073002BE7
:101BC40003D0786800F033F905E0786800F026F96E
:101BD400786800F035F97B6800221A777B681B6807
:101BE4001B6903F00103012B0ED17B681B68DB68C2
:101BF40003F00103012B07D17B681B686FF001021E
:101C04001A61786801F04AF97B681B681B6903F064
:101C14008003802B0ED17B681B68DB6803F0800394
:101C2400802B07D17B681B686FF080021A6178688B
:101C340000F075FA7B681B681B6903F04003402BB6
:101C44000ED17B681B68DB6803F04003402B07D18F
:101C54007B681B686FF040021A61786800F0F9F83D
:101C64007B681B681B6903F02003202B0ED17B6863
:101C74001B68DB6803F02003202B07D17B681B68FB
:101C84006FF020021A61786800F040FA00BF08374C
:101C9400BD4680BD80B584B000AF786039607B6894
:101CA40093F83C30012B01D10223B3E07B6801227D
:101CB40083F83C207B68022283F83D207B681B6804
:101CC4009B68FB60FB6823F07703FB60FB6823F4ED
:101CD4007F43FB607B681B68FA689A603B681B68FB
:101CE400B3F5005F3ED0B3F5005F00F28780B3F533
:101CF400805F00F08580B3F5805F7FD8702B1AD0A9
:101D0400702B7BD8602B50D0602B77D8502B3CD0D5
:101D1400502B73D8402B58D0402B6FD8302B64D025
:101D2400302B6BD8202B60D0202B67D8002B5CD0B5
:101D3400102B5AD062E07B6818683B6899683B684E
:101D44005A683B68DB6800F07EF97B681B689B6817
:101D5400FB60FB6843F07703FB607B681B68FA68F1
:101D64009A604EE07B6818683B6899683B685A68DB
:101D74003B68DB6800F067F97B681B689A687B68DE
:101D84001B6842F480429A603BE07B6818683B68B9
:101D940059683B68DB681A4600F0DEF87B681B680C
:101DA4005021184600F035F92BE07B6818683B6831
:101DB40059683B68DB681A4600F0FCF87B681B68CE
:101DC4006021184600F025F91BE07B6818683B6821
:101DD40059683B68DB681A4600F0BEF87B681B68EC
:101DE4004021184600F015F90BE07B681A683B683F
:101DF4001B681946104600F00CF902E000BF00E031
:101E040000BF7B68012283F83D207B68002283F8B1
:101E14003C20002318461037BD4680BD80B483B0F3
:101E240000AF786000BF0C37BD4680BC704780B4FB
:101E340083B000AF786000BF0C37BD4680BC7047EC
:101E440080B483B000AF786000BF0C37BD4680BC5F
:101E5400704780B483B000AF786000BF0C37BD46D4
:101E640080BC704780B485B000AF786039607B680F
:101E74001B68FB607B68334A934213D07B68324A09
:101E840093420FD07B68B3F1804F0BD07B682F4A0D
:101E9400934207D07B682E4A934203D07B682D4A35
:101EA400934208D1FB6823F07003FB603B685B68D6
:101EB400FA681343FB607B68224A934213D07B6821
:101EC400214A93420FD07B68B3F1804F0BD07B68DB
:101ED4001E4A934207D07B681D4A934203D07B6815
:101EE4001C4A934208D1FB6823F44073FB603B68AF
:101EF400DB68FA681343FB60FB6823F080023B68ED
:101F04005B691343FB607B68FA681A603B689A68F4
:101F14007B68DA623B681A687B689A627B68094A64
:101F2400934203D07B68084A934203D13B681A6901
:101F34007B681A637B6801225A6100BF1437BD466F
:101F440080BC7047002C0140003401400004004074
:101F540000080040000C004080B487B000AFF86077
:101F6400B9607A60FB681B6A7B61FB681B6A23F0BB
:101F74000102FB681A62FB689B693B613B6923F0C1
:101F8400F0033B617B681B013A6913433B617B6946
:101F940023F00A037B617A69BB6813437B61FB68A6
:101FA4003A699A61FB687A691A6200BF1C37BD46B8
:101FB40080BC704780B487B000AFF860B9607A60C5
:101FC400FB681B6A23F01002FB681A62FB689B69BA
:101FD4007B61FB681B6A3B617B6923F470437B6113
:101FE4007B681B037A6913437B613B6923F0A0037D
:101FF4003B61BB681B013A6913433B61FB687A6927
:102004009A61FB683A691A6200BF1C37BD4680BCFE
:10201400704780B485B000AF786039607B689B6896
:10202400FB60FB6823F07003FB603A68FB681343B2
:1020340043F00703FB607B68FA689A6000BF1437BB
:10204400BD4680BC704780B487B000AFF860B9600B
:102054007A603B60FB689B687B617B6923F47F4308
:102064007B613B681A027B681A43BB6813437A6935
:1020740013437B61FB687A699A6000BF1C37BD46D5
:1020840080BC704780B485B000AF786039607B68ED
:1020940093F83C30012B01D1022332E07B6801220A
:1020A40083F83C207B68022283F83D207B681B6810
:1020B4005B68FB607B681B689B68BB60FB6823F004
:1020C4007003FB603B681B68FA681343FB60BB68E2
:1020D40023F08003BB603B685B68BA681343BB6052
:1020E4007B681B68FA685A607B681B68BA689A60E8
:1020F4007B68012283F83D207B68002283F83C2022
:10210400002318461437BD4680BC704780B483B0A2
:1021140000AF786000BF0C37BD4680BC704780B408
:1021240083B000AF786000BF0C37BD4680BC7047F9
:1021340080B582B000AF78607B68002B01D10123A9
:102144003FE07B6893F83930DBB2002B06D17B6823
:10215400002283F83820786801F0D2FA7B682422C0
:1021640083F839207B681B68DA687B681B6822F473
:102174000052DA60786800F05FFD7B681B681A69BA
:102184007B681B6822F490421A617B681B685A6959
:102194007B681B6822F02A025A617B681B68DA6834
:1021A4007B681B6842F40052DA607B680022DA63C1
:1021B4007B68202283F839207B68202283F83A2028
:1021C400002318460837BD4680BD80B588B002AFED
:1021D400F860B9603B601346FB8000237B61FB68B9
:1021E40093F83930DBB2202B40F08380BB68002B9E
:1021F40002D0FB88002B01D101237BE0FB6893F81C
:102204003830012B01D1022374E0FB68012283F8EA
:102214003820FB680022DA63FB68212283F8392026
:10222400FEF75EF87861FB68FA889A84FB68FA889E
:10223400DA8442E0FB68DB8C9BB2013B9AB2FB6818
:10224400DA84FB689B68B3F5805F22D13B68009316
:102254007B6900228021F86800F070FB0346002BA4
:1022640001D0032346E0BB683B613B691B881A46E7
:10227400FB681B68C2F308025A60FB681B69002BE9
:1022840003D1BB680233BB6017E0BB680133BB609A
:1022940013E03B6800937B6900228021F86800F01A
:1022A4004DFB0346002B01D0032323E0BB685A1CDB
:1022B400BA601A78FB681B685A60FB68DB8C9BB2B7
:1022C400002BB7D13B6800937B6900224021F8685A
:1022D40000F034FB0346002B01D003230AE0FB6823
:1022E400202283F83920FB68002283F83820002359
:1022F40000E0022318461837BD4680BD80B586B07D
:1023040000AFF860B9601346FB80FB6893F839307E
:10231400DBB2202B53D1BB68002B02D0FB88002BEF
:1023240001D101234CE0FB6893F83830012B01D133
:10233400022345E0FB68012283F83820BA68FB6871
:102344001A62FB68FA889A84FB68FA88DA84FB6864
:102354000022DA63FB68212283F83920FB681B6BB7
:10236400194A9A62FB681B6B184ADA62FB681B6B9A
:10237400174A1A63FB681B6B00225A6307F10803B0
:102384007B61FB68186B7B691968FB681B68043305
:102394001A46FB88FEF756F9FB681B686FF040028B
:1023A4001A60FB68002283F83820FB681B685A69AE
:1023B400FB681B6842F080025A61002300E002239C
:1023C40018461837BD4680BDBB2700080D280008F5
:1023D400AD28000880B586B000AFF860B960134638
:1023E400FB80FB6893F83A30DBB2202B66D1BB68E4
:1023F400002B02D0FB88002B01D101235FE0FB6896
:1024040093F83830012B01D1022358E0FB680122F4
:1024140083F83820BA68FB689A62FB68FA889A8560
:10242400FB680022DA63FB68222283F83A20FB6807
:102434005B6B254A9A62FB685B6B244ADA62FB6831
:102444005B6B234A1A63FB685B6B00225A6307F1D8
:1024540008037B61FB68586BFB681B6804331946EF
:102464007B691A68FB88FEF7EDF800233B61FB6883
:102474001B681B683B61FB681B685B683B613B69CD
:10248400FB68002283F83820FB681B68DA68FB6865
:102494001B6842F48072DA60FB681B685A69FB6847
:1024A4001B6842F001025A61FB681B685A69FB68A9
:1024B4001B6842F040025A61002300E002231846E0
:1024C4001837BD4680BD00BF2928000891280008A0
:1024D400AD28000880B584B000AF78600023FB60AD
:1024E4007B681B685B6903F08003002B14BF012326
:1024F4000023DBB2FB607B6893F83930DBB2212B1D
:1025040016D1FB68002B13D07B681B685A697B6863
:102514001B6822F080025A617B681B6B002B04D07D
:102524007B681B6B1846FEF7ECF8786800F050FAED
:102534007B681B685B6903F04003002B14BF012315
:102544000023DBB2FB607B6893F83A30DBB2222BCA
:1025540016D1FB68002B13D07B681B685A697B6813
:102564001B6822F040025A617B685B6B002B04D02D
:102574007B685B6B1846FEF7C4F8786800F03DFA98
:10258400002318461037BD4680BD000080B588B0D2
:1025940000AF78607B681B681B68FB617B681B6805
:1025A400DB68BB617B681B685B697B6100233B6103
:1025B4000023FB60FB6903F00F033B613B69002BC5
:1025C4000DD1FB6903F02003002B08D0BB6903F095
:1025D4002003002B03D0786800F0ADFACBE03B6910
:1025E400002B00F0AB807B6903F00103002B05D1C5
:1025F400BB6903F49073002B00F0A080FB6903F027
:102604000103002B0AD0BB6903F48073002B05D0AF
:102614007B68DB6B43F001027B68DA63FB6903F0E0
:102624000403002B0AD07B6903F00103002B05D0BF
:102634007B68DB6B43F002027B68DA63FB6903F0BF
:102644000203002B0AD07B6903F00103002B05D0A1
:102654007B68DB6B43F004027B68DA63FB6903F09D
:102664000803002B0AD07B6903F00103002B05D07B
:102674007B68DB6B43F008027B68DA637B68DB6BA7
:10268400002B77D0FB6903F02003002B07D0BB6934
:1026940003F02003002B02D0786800F04CFA7B682A
:1026A4001B685B6903F04003002B14BF0123002364
:1026B400DBB2FB607B68DB6B03F00803002B02D109
:1026C400FB68002B31D0786800F097F97B681B68B1
:1026D4005B6903F04003002B23D07B681B685A69B5
:1026E4007B681B6822F040025A617B685B6B002B9D
:1026F40013D07B685B6B214A5A637B685B6B18461B
:10270400FEF73AF80346002B16D07B685B6B5B6BD5
:102714007A68526B104698470EE0786800F042F8E9
:102724000AE0786800F03EF806E0786800F03AF8CD
:102734007B680022DA631DE000BF1BE0FB6903F045
:102744008003002B08D0BB6903F08003002B03D067
:10275400786800F083F90EE0FB6903F04003002B76
:1027640009D0BB6903F04003002B04D0786800F063
:10277400CAF900E000BF2037BD4680BD392A0008F1
:1027840080B483B000AF786000BF0C37BD4680BC16
:10279400704780B483B000AF786000BF0C37BD468B
:1027A40080BC704780B483B000AF786000BF0C3742
:1027B400BD4680BC704780B584B000AF78607B684C
:1027C4005B6AFB607B681B681B6803F02003002BBB
:1027D40013D1FB680022DA84FB681B685A69FB6822
:1027E4001B6822F080025A61FB681B68DA68FB6888
:1027F4001B6842F04002DA6002E0F86801F01AF95E
:1028040000BF1037BD4680BD80B584B000AF78608E
:102814007B685B6AFB60F868FFF7B2FF00BF1037A4
:10282400BD4680BD80B584B000AF78607B685B6ACC
:10283400FB607B681B681B6803F02003002B1ED120
:10284400FB680022DA85FB681B68DA68FB681B6892
:1028540022F48072DA60FB681B685A69FB681B68A3
:1028640022F001025A61FB681B685A69FB681B6805
:1028740022F040025A61FB68202283F83A20F8686B
:1028840001F0C6F800BF1037BD4680BD80B584B0E6
:1028940000AF78607B685B6AFB60F868FFF779FFDC
:1028A40000BF1037BD4680BD80B584B000AF7860EE
:1028B4000023FB607B685B6ABB60BB681B685B6969
:1028C40003F08003002B14BF01230023DBB2FB6061
:1028D400BB6893F83930DBB2212B08D1FB68002B9D
:1028E40005D0BB680022DA84B86800F071F8BB68D0
:1028F4001B685B6903F04003002B14BF0123002312
:10290400DBB2FB60BB6893F83A30DBB2222B08D110
:10291400FB68002B05D0BB680022DA85B86800F09C
:102924006CF8BB68DB6B43F01002BB68DA63B86811
:10293400FFF738FF00BF1037BD4680BD80B584B0B7
:1029440000AFF860B9603B601346FB712CE0BB69D3
:10295400B3F1FF3F28D0BB69002B07D0FDF7C0FCC3
:1029640002463B68D31ABA699A421DD2FB681B68B7
:10297400DA68FB681B6822F4D072DA60FB681B68B3
:102984005A69FB681B6822F001025A61FB68202225
:1029940083F83920FB68202283F83A20FB68002260
:1029A40083F8382003230FE0FB681B681A68BB68B0
:1029B4001340BA689A420CBF01230023DBB21A46C3
:1029C400FB799A42C3D0002318461037BD4680BD18
:1029D40080B483B000AF78607B681B68DA687B687A
:1029E4001B6822F0C002DA607B68202283F8392059
:1029F40000BF0C37BD4680BC704780B483B000AFC5
:102A040078607B681B68DA687B681B6822F49072C4
:102A1400DA607B681B685A697B681B6822F00102D4
:102A24005A617B68202283F83A2000BF0C37BD46E8
:102A340080BC704780B584B000AF78607B685B6A07
:102A4400FB60FB680022DA85FB680022DA84F86800
:102A5400FFF7A8FE00BF1037BD4680BD80B485B027
:102A640000AF78607B6893F83930DBB2212B44D116
:102A74007B689B68B3F5805F1AD17B681B6AFB6037
:102A8400FB681B881A467B681B68C2F308025A60FD
:102A94007B681B69002B05D17B681B6A9A1C7B68C9
:102AA4001A620EE07B681B6A5A1C7B681A6208E093
:102AB4007B681B6A591C7A6811621A787B681B68E8
:102AC4005A607B68DB8C9BB2013B9BB27A681946E7
:102AD400D184002B0FD17B681B68DA687B681B6884
:102AE40022F08002DA607B681B68DA687B681B6806
:102AF40042F04002DA60002300E002231846143753
:102B0400BD4680BC704780B582B000AF78607B68FA
:102B14001B68DA687B681B6822F04002DA607B6815
:102B2400202283F83920786800F084FF00231846B7
:102B34000837BD4680BD80B584B000AF78607B683F
:102B440093F83A30DBB2222B71D17B689B68B3F5E2
:102B5400805F23D17B689B6AFB607B681B69002BC9
:102B64000ED17B681B685B689BB2C3F308039AB2FF
:102B7400FB681A807B689B6A9A1C7B689A6229E0CE
:102B84007B681B685B689BB2DBB29AB2FB681A80F5
:102B94007B689B6A5A1C7B689A621BE07B681B6992
:102BA400002B0AD17B681B6858687B689B6A591C98
:102BB4007A689162C2B21A700CE07B681B685B6829
:102BC400DAB27B689B6A581C7968886202F07F02DB
:102BD400D2B21A707B68DB8D9BB2013B9BB27A68E0
:102BE4001946D185002B20D17B681B68DA687B6885
:102BF4001B6822F02002DA607B681B68DA687B6855
:102C04001B6822F48072DA607B681B685A697B68EF
:102C14001B6822F001025A617B68202283F83A2063
:102C2400786800F0F5FE002302E0002300E00223B0
:102C340018461037BD4680BD80B584B000AF7860BB
:102C44007B681B681B6923F440517B68DA687B68E6
:102C54001B680A431A617B689A687B681B691A437C
:102C64007B685B691343FB607B681B68DB6823F448
:102C7400B05323F00C037A681268F9680B43D360ED
:102C84007B681B685B6923F440717B689A697B6885
:102C94001B680A435A617B681B68524A93424ED1AF
:102CA400FEF770FEB860BA6813469B0013449A009E
:102CB4001A447B685B689B00B2FBF3F34A4AA2FBAD
:102CC40003235B091901BA6813469B0013449A0055
:102CD4001A447B685B689B00B2FBF3F2424BA3FB94
:102CE40002035B09642000FB03F3D31A1B01323394
:102CF4003D4AA2FB03235B0903F0F0031944BA68BD
:102D040013469B0013449A001A447B685B689B003B
:102D1400B2FBF3F2344BA3FB02035B09642000FB18
:102D240003F3D31A1B0132332F4AA2FB03235B099B
:102D340003F00F027B681B680A449A604DE0FEF7BB
:102D44000DFEB860BA6813469B0013449A001A44F7
:102D54007B685B689B00B2FBF3F3234AA2FB03236B
:102D64005B091901BA6813469B0013449A001A447C
:102D74007B685B689B00B2FBF3F21B4BA3FB020373
:102D84005B09642000FB03F3D31A1B013233164A98
:102D9400A2FB03235B0903F0F0031944BA6813464A
:102DA4009B0013449A001A447B685B689B00B2FB47
:102DB400F3F20D4BA3FB02035B09642000FB03F356
:102DC400D31A1B013233084AA2FB03235B0903F025
:102DD4000F027B681B680A449A6000BF1037BD4627
:102DE40080BD00BF003801401F85EB5180B582B023
:102DF40000AF0346FB71FB79002B02D0012B07D0F7
:102E04000DE000224FF480710748FEF7BBF906E09D
:102E140001224FF480710448FEF7B4F900BF00BFEB
:102E24000837BD4680BD00BF000C014080B582B0AC
:102E340000AF0346FB71FB79002B07D0012B0BD1AC
:102E4400002220210648FEF79DF905E001222021F9
:102E54000348FEF797F900BF00BF0837BD4680BDA1
:102E6400000C014080B582B000AF0346FB71FB79D2
:102E7400002B07D0012B0BD1002220210648FEF79E
:102E840081F905E0012220210348FEF77BF900BF08
:102E940000BF0837BD4680BD0018014080B582B030
:102EA40000AF7860094B1B781846FFF7BFFF074B4C
:102EB4005B781846FFF7D6FF044B5B781846FFF79C
:102EC40095FF00BF0837BD4680BD00BF1402002037
:102ED40080B500AFFDF7ACF900F036F800F03CF92E
:102EE40000F0C8F800F0F0F800F018F900F074F8F9
:102EF40000F065F80020FFF779FF0020FFF796FF48
:102F04000020FFF7AFFF0D4B1B68DA680B4B1B6803
:102F140042F01002DA60142209490848FFF75AFA0D
:102F24000848FEF78CFD03E04FF47A70FDF7E2F9F0
:102F340000F078F90346002BF6D0FEE7900100205C
:102F4400200200201001002080B590B000AF07F1EE
:102F5400180328220021184600F0DCFD3B1D002246
:102F64001A605A609A60DA601A610223BB61012315
:102F7400BB621023FB6200237B6307F1180318462E
:102F8400FEF718F90346002B01D000F045F90F2392
:102F94007B600023BB600023FB6000233B610023B4
:102FA4007B613B1D00211846FEF784FB0346002B82
:102FB40001D000F031F900BF4037BD4680BD80B577
:102FC40000AF002200212620FDF78FFA2620FDF70E
:102FD400A8FA00BF80BD000080B586B000AF07F13D
:102FE400080300221A605A609A60DA603B460022A5
:102FF4001A605A601D4B1E4A1A601C4B41F63F7200
:103004005A601A4B00229A60184B4FF47A72DA60B5
:10301400164B00221A61154B00229A611348FEF7E1
:10302400E3FC0346002B01D000F0F6F84FF4805384
:10303400BB6007F1080319460C48FEF72BFE034654
:10304400002B01D000F0E8F800233B6000237B60F4
:103054003B4619460548FFF715F80346002B01D0F7
:1030640000F0DAF800BF1837BD4680BD100100201B
:103074000004004080B500AF114B124A1A60104B97
:103084004FF416525A600E4B00229A600C4B0022E9
:10309400DA600B4B00221A61094B0C225A61084B6F
:1030A40000229A61064B0022DA610548FFF740F8D6
:1030B4000346002B01D000F0AFF800BF80BD00BF75
:1030C400500100200038014080B500AF114B124A76
:1030D4001A60104B4FF416525A600E4B00229A603D
:1030E4000C4B0022DA600B4B00221A61094B0C22B4
:1030F4005A61084B00229A61064B0022DA610548A6
:10310400FFF716F80346002B01D000F085F800BF46
:1031140080BD00BF900100200044004080B582B013
:1031240000AF0C4B5B690B4A43F001035361094B3D
:103134005B6903F001037B607B680022002110209F
:10314400FDF7D3F91020FDF7ECF900BF0837BD46B1
:1031540080BD00BF0010024080B588B000AF07F109
:10316400100300221A605A609A60DA60274B9B6948
:10317400264A43F040039361244B9B6903F04003C8
:10318400FB60FB68214B9B69204A43F00403936175
:103194001E4B9B6903F00403BB60BB681B4B9B691C
:1031A4001A4A43F008039361184B9B6903F0080320
:1031B4007B607B68002220211548FDF7E3FF002295
:1031C4004FF490711348FDF7DDFF20233B61012389
:1031D4007B610023BB610223FB6107F110031946E5
:1031E4000B48FDF73BFE4FF490733B6101237B6179
:1031F4000023BB610223FB6107F110031946054854
:10320400FDF72CFE00BF2037BD4680BD00100240F4
:1032140000180140000C014080B400AF00BFBD465F
:1032240080BC704780B582B000AF00237B60002370
:103234007B6012E00D4A7B6852F8233098470346BE
:10324400002B07D17B68DBB2184600F049F87B6895
:10325400013B7B607B6801337B607B682B2BE9D966
:10326400012318460837BD4680BD00BF5C0000201E
:1032740080B584B000AFF8607A603B600B46FB72A7
:10328400FB7A9BB2013B9AB240F6FF73F96811488E
:10329400FEF79BFFFF2210490E48FFF79BF802E060
:1032A4003220FDF727F80D4B1B78002BF8D00B4B81
:1032B4001B781A460849786800F01EFC074B1A78F8
:1032C4003B681A70054B00221A7000BF1037BD46C8
:1032D40080BD00BF90010020200200201C020020BD
:1032E40080B483B000AF0346FB7100BF0C37BD460A
:1032F40080BC704780B5C2B000AFFB1C3A1D0521ED
:103304000C48FFF7B5FF0023C7F804313B1D0A49F9
:10331400184600F0EAFCC7F80401D7F80431002B82
:1033240001D1002300E00123184607F58477BD4648
:1033340080BD00BF080000201444000880B5C4B05C
:1033440000AFFB1C3A1D09213F48FFF791FF002302
:10335400C7F804313B1D2C21184600F0B9FCC7F80E
:103364000401D7F80431002B01D1002367E00123C5
:1033740087F80931002387F80B31D7F80431013B72
:10338400C7F80C311BE0D7F80C311B78303BDBB2AB
:1033940097F8092102FB03F3DAB297F80B311344CF
:1033A40087F80B3197F809311A46920013445B00F1
:1033B40087F80931D7F80C31013BC7F80C31D7F83D
:1033C4000C311B78392BDED9002387F80A31D7F862
:1033D40004310133C7F80C3116E097F80A311A4664
:1033E400920013445B0087F80A31D7F80C311A783D
:1033F40097F80A311344DBB2303B87F80A31D7F827
:103404000C310133C7F80C31D7F80C311B78392B48
:1034140004D8D7F80C311B782F2BDED897F80B3152
:10342400632B03D097F80A31632B01D1002306E004
:1034340097F80B311E2B01D9002300E00123184615
:1034440007F58877BD4680BD1000002080B5CAB05E
:1034540000AF3B1D1E220021184600F05BFB381D07
:10346400134B144A144900F013FC3B1D1846FCF797
:10347400D7FE0346D9B2FB1C07F12402381DFFF71F
:10348400F7FE0023C7F8243107F124030B4918463B
:1034940000F02BFCC7F82401D7F82431002B01D10C
:1034A400002300E00123184607F59477BD4680BD4C
:1034B4000C440008184400082C000020F0430008C5
:1034C40080B5CAB000AF3B1D1E220021184600F093
:1034D40021FB381D134B144A144900F0D9FB3B1D42
:1034E4001846FCF79DFE0346D9B2FB1C07F12402E3
:1034F400381DFFF7BDFE0023C7F8243107F124036C
:103504000B49184600F0F1FBC7F82401D7F8243121
:10351400002B01D1002300E00123184607F594771E
:10352400BD4680BD0C440008FC4300084000002058
:10353400F043000880B5C2B000AFFB1D07F10802DC
:1035440009210448FFF794FE0123184607F5847700
:10355400BD4680BD5000002080B5C2B000AFFB1D49
:1035640007F1080209210448FFF782FE00231846E8
:1035740007F58477BD4680BD1000002080B5CAB031
:1035840000AF3B1D1E220021184600F0C3FA3B1D6C
:10359400134A1449184600F07BFB3B1D1846FCF700
:1035A4003FFE0346D9B2FB1C07F12402381DFFF786
:1035B4005FFE0023C7F8243107F124030A491846A3
:1035C40000F093FBC7F82401D7F82431002B01D174
:1035D400002300E00123184607F59477BD4680BD1B
:1035E400F44300081C000020F043000880B5C2B07A
:1035F40000AFFB1D07F1080209210448FFF738FE5C
:103604000023184607F58477BD4680BD10000020CE
:1036140080B5C2B000AFFB1D07F1080209210448C0
:10362400FFF726FE0023184607F58477BD4680BDC4
:103634001000002080B5C2B000AFFB1D07F10802E6
:1036440009210448FFF714FE0023184607F5847780
:10365400BD4680BD1000002080B485B000AF134B80
:103664009B69124A43F001039361104B9B6903F079
:103674000103BB60BB680D4BDB690C4A43F080530C
:10368400D3610A4BDB6903F080537B607B68084B92
:103694005B68FB60FB6823F0E063FB60044AFB6843
:1036A400536000BF1437BD4680BC70470010024011
:1036B4000000014080B584B000AF78607B681B686F
:1036C4000D4A934213D10D4BDB690C4A43F00203BC
:1036D400D3610A4BDB6903F00203FB60FB68002241
:1036E40000211D20FCF701FF1D20FCF71AFF00BF7D
:1036F4001037BD4680BD00BF0004004000100240EA
:1037040080B58AB000AF786007F1180300221A6010
:103714005A609A60DA607B681B684A4A934232D1E5
:10372400494B9B69484A43F480439361464B9B69E8
:1037340003F480437B617B69434B9B69424A43F0BA
:1037440004039361404B9B6903F004033B613B69B1
:103754004FF40073BB610223FB6103237B6207F117
:10376400180319463948FDF779FB4FF48063BB61B0
:103774000023FB6101233B6207F118031946334818
:10378400FDF76CFB5AE07B681B68314A934255D1C4
:103794002D4BDB692C4A43F40033D3612A4BDB699C
:1037A40003F40033FB60FB68274B9B69264A43F014
:1037B40004039361244B9B6903F00403BB60BB685F
:1037C4000423BB610223FB6103237B6207F118031B
:1037D40019461E48FDF742FB0823BB610023FB6129
:1037E40001233B6207F1180319461848FDF736FB1D
:1037F400184B194A1A60174B00225A60154B0022C5
:103804009A60144B8022DA60124B00221A61114B29
:1038140000225A610F4B00229A610E4B0022DA619A
:103824000C48FCF799FE0346002B01D0FFF7F4FC8B
:103834007B68084A5A63074A7B68536200BF28378B
:10384400BD4680BD00380140001002400008014020
:1038540000440040D00100206C00024080B400AF5E
:1038640000BFBD4680BC704780B400AFFEE780B4A3
:1038740000AFFEE780B400AFFEE780B400AFFEE720
:1038840080B400AF00BFBD4680BC704780B400AFB9
:1038940000BFBD4680BC704780B400AF00BFBD46CA
:1038A40080BC704780B500AFFCF708FD00BF80BD49
:1038B40080B500AF0248FDF767F800BF80BD00BFC8
:1038C400D001002080B500AF0248FEF7DBF800BF4E
:1038D40080BD00BF1001002080B500AF0348FEF793
:1038E40055FE024800F064F800BF80BD900100203E
:1038F40080B584B000AF7860114B1B68002B02D1F7
:103904000F4B104A1A600E4B1B68FB600C4B1A6875
:103914007B6813446A46934207D900F0C3F8034610
:103924000C221A604FF0FF3306E0054B1A687B68DF
:103934001344034A1360FB6818461037BD4680BD24
:10394400180200203803002080B400AF154B1B6818
:10395400144A43F001031360124B5A681149124B85
:1039640013404B600F4B1B680E4A23F0847323F4FF
:10397400803313600B4B1B680A4A23F480231360C3
:10398400084B5B68074A23F4FE035360054B4FF46E
:103994001F029A60054B4FF000629A6000BFBD465B
:1039A40080BC7047001002400000FFF800ED00E00A
:1039B40080B584B000AF78607B68124A93421CD112
:1039C400104B1B681B6803F01003102B15D1002348
:1039D400FB600C4B1B681B68FB600A4B1B685B6835
:1039E400FB60FB680748FEF775FD074B1B685B68C7
:1039F400DBB2DB43DAB2054B1A7000BF1037BD46A9
:103A040080BD00BF90010020D00100201C020020D6
:103A140080B582B000AF7860FF2204490448FEF705
:103A2400D9FC00BF0837BD4680BD00BF200200207E
:103A34009001002080B582B000AF7860FF22044975
:103A44000448FEF75BFC00BF0837BD4680BD00BFDD
:103A54002002002090010020002103E00B4B5B5862
:103A6400435004310A480B4B42189A42F6D30A4A8F
:103A740002E0002342F8043B084B9A42F9D3FFF7D3
:103A840063FF00F015F8FFF723FA70477844000845
:103A940000000020F0000020F00000203803002087
:103AA400FEE70000014B1868704700BF8C0000203F
:103AB40070B500260C4D0D4C641BA410A64209D110
:103AC40000F080FC00260A4D0A4C641BA410A64298
:103AD40005D170BD55F8043B98470136EEE755F81B
:103AE400043B98470136F2E770440008704400082C
:103AF40070440008744400080A44914200F1FF3302
:103B040000D1704710B511F8014B914203F8014FF1
:103B1400F9D110BD03460244934200D1704703F823
:103B2400011BF9E738B50546002943D051F8043C98
:103B34000C1F002BB8BFE41800F0EEF81E4A1368FF
:103B4400104633B9636014602846BDE8384000F07D
:103B5400E9B8A3420AD921686218934201BF1A68DE
:103B64005B685218226063600460EDE71A465B6884
:103B74000BB1A342FAD911685018A0420BD12068A6
:103B84000144501883421160DED118685B68014417
:103B940011605360D8E702D90C232B60D4E7206866
:103BA40021188B4201BF19685B68091821606360A2
:103BB4005460C9E738BD00BF20030020F8B5CD1C10
:103BC40025F0030508350C2D38BF0C25002D0646BD
:103BD40001DBA94203D90C2333600020F8BD00F0B7
:103BE4009BF821490A6814469CB9204F3B6823B9C5
:103BF4002146304600F03CF838602946304600F053
:103C040037F8431C23D10C233046336000F08AF884
:103C1400E3E723685B1B17D40B2B03D923601C44F5
:103C2400256004E06368A2420CBF0B605360304619
:103C340000F078F804F10B00231D20F00700C21AED
:103C4400CCD01B1AA350C9E722466468CCE7C41C35
:103C540024F00304A042E3D0211A304600F008F80F
:103C64000130DDD1CFE700BF200300202403002072
:103C740038B50023054D044608462B60FFF738FE8F
:103C8400431C02D12B6803B1236038BD28030020F4
:103C94000EB46FF0004100B59CB01DAB02900690CD
:103CA400079104910848094953F8042B05910068C9
:103CB40002A9019300F098F80022029B1A701CB02C
:103CC4005DF804EB03B070478C0000200802FFFF8E
:103CD4000346C9B2184613F8012B12B18A42F9D12E
:103CE4007047002918BF00207047F0B50C7864B104
:103CF40003461A7818465E1C0AB9104605E0944239
:103D040008D10D4615F8012F02B9F0BD13F8017F53
:103D14009742F7D03346ECE7014800F0FBBA00BF06
:103D240030030020014800F0F6BA00BF3003002041
:103D34002DE9F0478E6882469E420C4690461F4607
:103D440038D88A8912F4906F32D025680969013312
:103D5400A5EB010965694B4405EB450505EBD575F4
:103D64006D109D4238BF1D46530531D52946FFF7D6
:103D740025FF064650B90C234FF0FF30CAF8003037
:103D8400A38943F04003A381BDE8F0874A46216933
:103D9400FFF7B2FEA38923F4906343F08003A38169
:103DA40026614E4426603E466561A5EB0905A56083
:103DB400BE4200D93E4632464146206800F0BAFA77
:103DC400A36822689B1B32440020A3602260DBE7C7
:103DD4002A4600F0C9FA06460028E1D15046216976
:103DE400FFF7A0FEC7E700002DE9F04F98468B8946
:103DF40007461B060D4614469DB00ED50B6963B9E4
:103E04004021FFF7DBFE2860286120B90C233B60CA
:103E14004FF0FF30D1E040236B610023099320234E
:103E24008DF8293030234FF00109CDF80C80DFF8EC
:103E3400A4818DF82A3023469A4613F8012B0AB13F
:103E4400252AF9D1BAEB040B0BD05B46224629464E
:103E54003846FFF76DFF013000F0AA80099A5A44F2
:103E640009929AF80030002B00F0A28000234FF052
:103E7400FF32CDE905230AF1010A049307938DF873
:103E840053301A935446052214F8011B514800F08C
:103E940043FA049AD8B9D00644BF20238DF853308E
:103EA400110744BF2B238DF853309AF800302A2B86
:103EB40015D0544600204FF00A0C079A214611F8F9
:103EC400013B303B092B4ED9B0B1079214E0A0EB73
:103ED400080309FA03F31343A2460493D2E7039BAE
:103EE400191D1B680391002BBBBF5B4242F0020209
:103EF40007930793B8BF049223782E2B0CD16378D1
:103F04002A2B35D1039B02341A1D1B680392002B04
:103F1400B8BF4FF0FF330593DFF8C8A00322504623
:103F2400217800F0F9F940B14023A0EB0A0003FA2C
:103F340000F0049B01340343049314F8011B06228C
:103F440025488DF8281000F0E7F9002838D0234BD5
:103F54001BBB039B073323F0070308330393099B1D
:103F64003344099367E70C4601200CFB0232A5E7B2
:103F740000234FF00A0C194601340593204610F82B
:103F8400012B303A092A03D9002BC5D00591C3E788
:103F9400044601230CFB0121F0E703AB00932A46FE
:103FA40038460F4B04A9AFF30080421C0646D6D115
:103FB400AB895B063FF52CAF09981DB0BDE8F08FC7
:103FC40003AB00932A463846054B04A900F07CF85D
:103FD400EBE700BF3C440008464400080000000032
:103FE400353D0008424400082DE9F047164699463D
:103FF4008A680B6907469342B8BF1346336091F849
:1040040043200C46DDF820800AB101333360236875
:10401400990642BF336802333360256815F00605FC
:1040240006D104F1190AE36832689B1AAB4228DC12
:1040340094F84320131E226818BF012392062DD43E
:104044004946384604F14302C047013020D0236872
:10405400E56803F00603042B18BF002532684FF00F
:104064000006A36808BFAD1A226908BF25EAE575F2
:104074009342C4BF9B1AED181A34B5421AD10020DA
:1040840008E00123524649463846C047013003D16F
:104094004FF0FF30BDE8F0870135C4E73020E11868
:1040A40081F843005A1C94F845102244023382F8E4
:1040B4004310C5E70123224649463846C04701302C
:1040C400E6D00136D9E700002DE9FF470C46277EEC
:1040D4009146782F80469A460C9904F1430207D8FA
:1040E400622F0AD8002F00F0D980582F00F0A48046
:1040F40004F1420684F842703AE0A7F16303152BF9
:10410400F6D801A050F823F0654100087941000871
:10411400F5400008F5400008F5400008F5400008A7
:1041240079410008F5400008F5400008F540000812
:10413400F540000887420008A941000869420008C8
:10414400F5400008F5400008A9420008F5400008C1
:10415400A9410008F5400008F54000087142000834
:104164000B6804F142061A1D1B680A6084F8423089
:104174000123A4E0256808682E0600F104030AD58B
:1041840005680B60002D03DA2D236D4284F843305B
:104194000A235E4819E015F0400F05680B6018BF4C
:1041A4002DB2EFE70B682568181D0860280601D5B5
:1041B4001D6802E06906FBD51D886F2F0CBF08231C
:1041C4000A235248002184F843106668002EA8BFD1
:1041D4002168A660A4BF21F0040121600DB9002E5E
:1041E4004DD01646B5FBF3F103FB1157C75D06F836
:1041F400017D2F46BB420D46F4D9082B0BD1236811
:10420400DF0708D5236961689942DEBF302306F8C9
:10421400013C06F1FF36921B22614B462146404683
:10422400CDF800A003AAFFF7DFFE01304CD14FF018
:10423400FF3004B0BDE8F087344884F845700E6858
:10424400236856F8045B1F060E6014D5D90744BFD3
:1042540043F0200323601DB9236823F02003236067
:104264001023AFE7236843F0200323607823284812
:1042740084F84530E3E75E0648BFADB2E6E716468C
:10428400BBE70B6826681D1D60690D6035061B6859
:1042940001D5186002E07106FBD51880002316468C
:1042A4002361BAE70B681A1D0A601E6800213046B4
:1042B400626800F031F808B1801B606063682361B4
:1042C400002384F84330A8E7324649464046236930
:1042D400D0470130ABD023689B0713D4E068039B1D
:1042E4009842B8BF1846A4E70123324649464046DF
:1042F400D04701309BD00135E36803995B1AAB4288
:10430400F2DCEBE7002504F11906F5E74D4400085B
:104314005E44000870477047034610B5C9B20244B2
:104324009342184601D1002003E0047801338C4203
:10433400F6D110BD884210B501EB020402D98442C3
:10434400234607D8431EA14208D011F8012B03F8D5
:10435400012FF8E7014602448A4200D110BD13F848
:10436400014D02F8014DF7E7F8B5074614460E462D
:1043740021B91146BDE8F840FFF720BC22B9FFF788
:10438400D1FB25462846F8BD00F014F8A0420FD210
:1043940021463846FFF712FC05460028F2D0314684
:1043A4002246FFF7A9FB31463846FFF7BBFBE9E796
:1043B4003546E7E751F8043C181F002BBCBF0B58E7
:1043C400C0187047F8B500BFF8BC08BC9E467047DB
:0C43D400F8B500BFF8BC08BC9E4670475E
:1043E00002030405060708090A0B0C0D0E0F101036
:1043F0004F4B000031000000300000003132372EFA
:10440000302E302E313A36363636000046414C5387
:10441000450000004F4B00004155544F434F4E4E56
:1044200045435400000000000000000001020304A6
:10443000060708090000000001020304232D302BA9
:104440002000686C4C006566674546470030313295
:1044500033343536373839414243444546003031EC
:10446000323334353637383961626364656600004B
:044470000902000835
:04447400E501000856
:10447800100000000100000041540D0A0000000077
:1044880041542B4353510D0A0000000041542B4363
:1044980046554E3D25730D0A0000000041542B4E31
:1044A800434F4E4649473D25732C25730D0A00009E
:1044B80041542B4E4344503D25730D0A0000000023
:1044C80041542B4E52420D0A00000000F9320008F8
:1044D8004133000851340008C53400083935000854
:1044E8005D3500085D35000881350008F1350008A4
:1044F80015360008393600080024F4009000002022
:1045080000000000000000000000000000000000A3
:104518000000000000000000000000000000000093
:104528000000000000000000000000000000000083
:104538000000000000000000000000000000000073
:104548000000000000000000000000000000000063
:104558000000000000000000000000000000000053
:0400000508003A5D58
:00000001FF
