:020000040800F2
:1000000000000120791B0008651A0008711A000819
:10001000771A00087D1A0008831A00080000000003
:10002000000000000000000000000000891A000825
:10003000951A000800000000A11A0008AD1A000877
:10004000C11B0008C11B0008C11B0008C11B000820
:10005000C11B0008C11B0008C11B0008C11B000810
:10006000C11B0008C11B0008C11B0008C11B000800
:10007000C11B0008C11B0008C11B0008C11B0008F0
:10008000C11B0008C11B0008C11B0008C11B0008E0
:10009000C11B0008C11B0008C11B0008C11B0008D0
:1000A000C11B0008C11B0008C11B0008C11B0008C0
:1000B000C11B0008C11B0008C11B0008C11B0008B0
:1000C000C11B0008C11B0008C11B0008C11B0008A0
:1000D000C11B0008C11B0008C11B0008C11B000890
:1000E000C11B0008C11B0008C11B0008C11B000880
:1000F000C11B0008C11B0008C11B0008C11B000870
:10010000C11B0008C11B0008C11B0008C11B00085F
:10011000C11B0008C11B0008C11B0008C11B00084F
:10012000C11B0008C11B0008C11B0008C11B00083F
:1001300000000000000000000000000000000000BF
:1001400000000000000000000000000000000000AF
:10015000000000000000000000000000000000009F
:10016000000000000000000000000000000000008F
:10017000000000000000000000000000000000007F
:10018000000000000000000000000000000000006F
:10019000000000000000000000000000000000005F
:1001A000000000000000000000000000000000004F
:1001B000000000000000000000000000000000003F
:1001C000000000000000000000000000000000002F
:1001D000000000000000000000000000000000001F
:0401E0005FF8E0F1F3
:1001E40010B5054C237833B9044B13B10448AFF36D
:1001F40000800123237010BD700000200000000067
:100204009C24000808B5034B1BB103490348AFF312
:10021400008008BD00000000740000209C24000839
:10022400034613F8012B002AFBD1181A0138704732
:1002340080B500AF084B1B68074A43F010031360F6
:10024400032000F02BF9002000F008F801F08EFBE9
:100254000023184680BD00BF0020024080B582B054
:1002640000AF7860124B1A68124B1B7819464FF492
:100274007A73B3FBF1F3B2FBF3F3184600F035F9EC
:100284000346002B01D001230EE07B680F2B0AD814
:10029400002279684FF0FF3000F00BF9064A7B68C2
:1002A4001360002300E0012318460837BD4680BDD3
:1002B40008000020040000200000002080B400AFEB
:1002C400054B1B781A46054B1B681344034A1360FD
:1002D40000BFBD4680BC7047040000208C00002095
:1002E40080B400AF024B1B681846BD4680BC704703
:1002F4008C00002080B584B000AF7860FFF7F0FF79
:10030400B8607B68FB60FB68B3F1FF3F05D00A4B24
:100314001B781A46FB681344FB6000BFFFF7E0FF3D
:100324000246BB68D31AFA689A42F7D800BF00BFE6
:100334001037BD4680BD00BF0400002080B485B0E6
:1003440000AF78607B6803F00703FB600C4BDB684D
:10035400BB60BA684FF6FF031340BB60FB681A0228
:10036400BB68134343F0BF6343F40033BB60044AE8
:10037400BB68D36000BF1437BD4680BC704700BF64
:1003840000ED00E080B400AF044BDB681B0A03F00F
:1003940007031846BD4680BC704700BF00ED00E06F
:1003A40080B483B000AF03463960FB7197F907301E
:1003B400002B0ADB3B68DAB20C4997F907301201CB
:1003C400D2B20B4483F800230AE03B68DAB208494E
:1003D400FB7903F00F03043B1201D2B20B441A76EB
:1003E40000BF0C37BD4680BC704700BF00E100E091
:1003F40000ED00E080B489B000AFF860B9607A60C5
:10040400FB6803F00703FB61FB69C3F10703042BDB
:1004140028BF0423BB61FB690433062B02D9FB69A3
:10042400033B00E000237B614FF0FF32BB6902FA1B
:1004340003F3DA43BB681A407B699A404FF0FF31FB
:100444007B6901FA03F3D9437B680B4013431846D5
:100454002437BD4680BC704780B582B000AF786059
:100464007B68013BB3F1807F01D301230FE00A4A8B
:100474007B68013B53600F214FF0FF30FFF790FF83
:10048400054B00229A60044B07221A600023184689
:100494000837BD4680BD00BF10E000E080B582B0E3
:1004A40000AF78607868FFF749FF00BF0837BD46A2
:1004B40080BD80B586B000AF0346B9607A60FB7337
:1004C40000237B61FFF75EFF78617A68B968786919
:1004D400FFF790FF024697F90F3011461846FFF7D1
:1004E4005FFF00BF1837BD4680BD80B582B000AF46
:1004F40078607868FFF7B0FF034618460837BD46B2
:1005040080BD000080B48BB000AF786039600023F8
:100514007B6200233B6279E101227B6A02FA03F3E6
:10052400FB613B681B68FA691340BB61BA69FB69EC
:100534009A4240F068813B685B68A04A93425ED06F
:100544009E4A934275D89E4A934258D09C4A9342FD
:100554006FD89C4A934252D09A4A934269D89A4A95
:1005640093424CD0984A934263D8984A934246D0D7
:10057400964A93425DD8122B2AD8122B59D801A23D
:1005840052F823F003060008DD050008EF05000813
:100594003106000837060008370600083706000849
:1005A4003706000837060008370600083706000833
:1005B4003706000837060008370600083706000823
:1005C4003706000837060008E5050008F9050008A5
:1005D4007F4A934213D02CE03B68DB683B6229E0FE
:1005E4003B68DB6804333B6224E03B68DB68083328
:1005F4003B621FE03B68DB680C333B621AE03B68FC
:100604009B68002B02D104233B6213E03B689B6888
:10061400012B05D108233B627B68FA691A6109E062
:1006240008233B627B68FA695A6103E000233B625A
:1006340000E000BFBB69FF2B01D87B6801E07B6849
:1006440004337B61BB69FF2B02D87B6A9B0002E009
:100654007B6A083B9B003B617B691A680F213B69FD
:1006640001FA03F3DB431A40396A3B6901FA03F3E5
:100674001A437B691A603B685B6803F08053002B64
:1006840000F0C180534B9B69524A43F001039361CC
:10069400504B9B6903F00103BB60BB684E4A7B6A05
:1006A4009B08023352F82330FB607B6A03F0030398
:1006B4009B000F2202FA03F3DB43FA681340FB604A
:1006C4007B68464A93421FD07B68454A934219D0BF
:1006D4007B68444A934213D07B68434A93420DD0CB
:1006E4007B68424A934207D07B68414A934201D1D6
:1006F40005230AE0062308E0042306E0032304E0BC
:10070400022302E0012300E000237A6A02F00302DC
:1007140092009340FA681343FB602F497B6A9B085D
:100724000233FA6841F823203B685B6803F48033A2
:10073400002B06D02F4B1A682E49BB6913430B605C
:1007440006E02C4B1A68BB69DB432A4913400B6053
:100754003B685B6803F40033002B06D0254B5A68D2
:100764002449BB6913434B6006E0224B5A68BB69BA
:10077400DB43204913404B603B685B6803F4801300
:10078400002B06D01B4B9A681A49BB6913438B6034
:1007940006E0184B9A68BB69DB43164913408B602B
:1007A4003B685B6803F40013002B25D0114BDA6817
:1007B4001049BB691343CB6025E000BF0000321031
:1007C400000031100000221000002110000012105F
:1007D4000000111000100240000001400008014018
:1007E400000C0140001001400014014000180140B9
:1007F400001C0140000401400B4BDA68BB69DB4379
:1008040009491340CB607B6A01337B623B681A68F9
:100814007B6A22FA03F3002B7FF47EAE00BF00BF95
:100824002C37BD4680BC70470004014080B483B0BF
:1008340000AF78600B467B8013467B707B78002B7F
:1008440003D07A887B681A6103E07B881A047B688A
:100854001A6100BF0C37BD4680BC704780B483B0BA
:1008640000AF78600B467B807B68DA687B88134036
:10087400002B03D07A887B685A6102E07A887B680F
:100884001A6100BF0C37BD4680BC704780B586B086
:1008940000AF78607B68002B01D101236CE27B6898
:1008A4001B6803F00103002B00F08780924B5B6808
:1008B40003F00C03042B0CD08F4B5B6803F00C0388
:1008C400082B12D18C4B5B6803F48033B3F5803F63
:1008D4000BD1894B1B6803F40033002B6CD07B686D
:1008E4005B68002B68D1012346E27B685B68B3F543
:1008F400803F06D1804B1B687F4A43F480331360EA
:100904002EE07B685B68002B0CD17B4B1B687A4A1A
:1009140023F480331360784B1B68774A23F48023D5
:1009240013601DE07B685B68B3F5A02F0CD1724B9C
:100934001B68714A43F4802313606F4B1B686E4A33
:1009440043F4803313600BE06B4B1B686A4A23F457
:1009540080331360684B1B68674A23F48023136059
:100964007B685B68002B13D0FFF7BAFC386108E0A2
:10097400FFF7B6FC02463B69D31A642B01D9032363
:10098400FAE15D4B1B6803F40033002BF0D014E054
:10099400FFF7A6FC386108E0FFF7A2FC02463B69BA
:1009A400D31A642B01D90323E6E1534B1B6803F4E8
:1009B4000033002BF0D100E000BF7B681B6803F01C
:1009C4000203002B63D04C4B5B6803F00C03002B39
:1009D4000BD0494B5B6803F00C03082B1CD1464B2E
:1009E4005B6803F48033002B16D1434B1B6803F080
:1009F4000203002B05D07B681B69012B01D0012366
:100A0400BAE13D4B1B6823F0F8027B685B69DB00AD
:100A1400394913430B603AE07B681B69002B20D0F3
:100A2400364B01221A60FFF75BFC386108E0FFF7E0
:100A340057FC02463B69D31A022B01D903239BE1DD
:100A44002D4B1B6803F00203002BF0D02A4B1B68CC
:100A540023F0F8027B685B69DB00274913430B60D2
:100A640015E0264B00221A60FFF73AFC386108E0D3
:100A7400FFF736FC02463B69D31A022B01D9032344
:100A84007AE11D4B1B6803F00203002BF0D17B6855
:100A94001B6803F00803002B3AD07B689B69002B8A
:100AA40019D0174B01221A60FFF71AFC386108E0CD
:100AB400FFF716FC02463B69D31A022B01D9032324
:100AC4005AE10D4B5B6A03F00203002BF0D00120C6
:100AD40000F0D8FA1CE00A4B00221A60FFF700FC71
:100AE40038610FE0FFF7FCFB02463B69D31A022B87
:100AF40008D9032340E100BF001002400000424235
:100B0400800442429E4B5B6A03F00203002BE9D14E
:100B14007B681B6803F00403002B00F0A68000230D
:100B2400FB75974BDB6903F08053002B0DD1944B7D
:100B3400DB69934A43F08053D361914BDB6903F043
:100B44008053BB60BB680123FB758E4B1B6803F4A9
:100B54008073002B18D18B4B1B688A4A43F4807333
:100B64001360FFF7BDFB386108E0FFF7B9FB0246ED
:100B74003B69D31A642B01D90323FDE0814B1B6825
:100B840003F48073002BF0D07B68DB68012B06D163
:100B94007B4B1B6A7A4A43F0010313622DE07B68A6
:100BA400DB68002B0CD1764B1B6A754A23F00103DA
:100BB4001362734B1B6A724A23F0040313621CE032
:100BC4007B68DB68052B0CD16D4B1B6A6C4A43F0C8
:100BD400040313626A4B1B6A694A43F001031362FC
:100BE4000BE0674B1B6A664A23F001031362644BF4
:100BF4001B6A634A23F0040313627B68DB68002BDF
:100C040015D0FFF76DFB38610AE0FFF769FB024678
:100C14003B69D31A41F28832934201D90323ABE0F2
:100C2400574B1B6A03F00203002BEED014E0FFF7CE
:100C340057FB38610AE0FFF753FB02463B69D31ABE
:100C440041F28832934201D9032395E04C4B1B6A4D
:100C540003F00203002BEED1FB7D012B05D1484BA1
:100C6400DB69474A23F08053D3617B68DB69002B3F
:100C740000F08180424B5B6803F00C03082B61D0C9
:100C84007B68DB69022B46D13F4B00221A60FFF7D9
:100C940027FB386108E0FFF723FB02463B69D31AC0
:100CA400022B01D9032367E0354B1B6803F0007363
:100CB400002BF0D17B681B6AB3F5803F08D1304B21
:100CC4005B6823F400327B689B682D4913434B60B7
:100CD4002B4B5B6823F474127B68196A7B685B6A2C
:100CE4000B43274913434B60274B01221A60FFF73C
:100CF400F7FA386108E0FFF7F3FA02463B69D31AC2
:100D0400022B01D9032337E01D4B1B6803F000734A
:100D1400002BF0D02FE01C4B00221A60FFF7E0FA02
:100D2400386108E0FFF7DCFA02463B69D31A022B6C
:100D340001D9032320E0124B1B6803F00073002B3E
:100D4400F0D118E07B68DB69012B01D1012313E0AA
:100D54000B4B5B68FB60FB6803F480327B681B6AA7
:100D64009A4206D1FB6803F470127B685B6A9A426C
:100D740001D0012300E0002318461837BD4680BD8A
:100D840000100240007000406000424280B584B010
:100D940000AF786039607B68002B01D10123D0E07B
:100DA4006A4B1B6803F007033A689A4210D9674BF1
:100DB4001B6823F0070265493B6813430B60634BD0
:100DC4001B6803F007033A689A4201D00123B8E094
:100DD4007B681B6803F00203002B20D07B681B6830
:100DE40003F00403002B05D0594B5B68584A43F4C5
:100DF400E06353607B681B6803F00803002B05D095
:100E0400534B5B68524A43F460535360504B5B68E6
:100E140023F0F0027B689B684D4913434B607B6869
:100E24001B6803F00103002B40D07B685B68012B37
:100E340007D1474B1B6803F40033002B15D1012362
:100E44007FE07B685B68022B07D1414B1B6803F092
:100E54000073002B09D1012373E03D4B1B6803F0A1
:100E64000203002B01D101236BE0394B5B6823F0B3
:100E740003027B685B68364913434B60FFF730FA23
:100E8400F8600AE0FFF72CFA0246FB68D31A41F235
:100E94008832934201D9032353E02D4B5B6803F05E
:100EA4000C027B685B689B009A42EBD1274B1B6862
:100EB40003F007033A689A4210D2244B1B6823F0CC
:100EC400070222493B6813430B60204B1B6803F065
:100ED40007033A689A4201D0012332E07B681B6819
:100EE40003F00403002B08D0194B5B6823F4E06281
:100EF4007B68DB68164913434B607B681B6803F00F
:100F04000803002B09D0124B5B6823F460527B6802
:100F14001B69DB000E4913434B6000F021F80246C5
:100F24000B4B5B681B0903F00F030A49CB5C22FAE5
:100F340003F3094A1360094B1B681846FFF78EF93F
:100F4400002318461037BD4680BD00BF0020024074
:100F54000010024044250008080000200000002082
:100F640090B48AB000AF2A4B3C1D0FCB84E80F002D
:100F740040F201233B800023FB610023BB6100237B
:100F84007B6200237B6100233B62224B5B68FB6135
:100F9400FB6903F00C03042B02D0082B03D02DE0D3
:100FA4001D4B3B622DE0FB699B0C03F00F0307F123
:100FB4002802134413F8243C7B61FB6903F4803357
:100FC400002B13D0134B5B685B0C03F0010307F198
:100FD4002802134413F8283CBB617B690E4A02FBC8
:100FE40003F2BB69B2FBF3F37B6204E07B690B4A57
:100FF40002FB03F37B627B6A3B6202E0064B3B62CB
:1010040000BF3B6A18462837BD4690BC704700BFF6
:10101400B42400080010024000127A0000093D00C8
:1010240080B400AF024B1B681846BD4680BC7047B5
:101034000800002080B500AFFFF7F2FF0246054B21
:101044005B681B0A03F007030349CB5C22FA03F332
:10105400184680BD001002405425000880B500AF3A
:10106400FFF7DEFF0246054B5B68DB0A03F007036C
:101074000349CB5C22FA03F3184680BD00100240FA
:101084005425000880B485B000AF78600A4B1B6813
:101094000A4AA2FB03235B0A7A6802FB03F3FB60A0
:1010A40000BFFB685A1EFA60002BF9D100BF00BFD5
:1010B4001437BD4680BC704708000020D34D621031
:1010C40080B582B000AF78607B68002B01D101232A
:1010D4003FE07B6893F83930DBB2002B06D17B68A4
:1010E400002283F83820786800F06EFC7B682422A4
:1010F40083F839207B681B68DA687B681B6822F4F4
:101104000052DA60786800F0B1F97B681B681A69EC
:101114007B681B6822F490421A617B681B685A69D9
:101124007B681B6822F02A025A617B681B68DA68B4
:101134007B681B6842F40052DA607B680022DA6341
:101144007B68202283F839207B68202283F83A20A8
:10115400002318460837BD4680BD80B588B002AF6D
:10116400F860B9603B601346FB8000237B61FB6839
:1011740093F83930DBB2202B40F08380BB68002B1E
:1011840002D0FB88002B01D101237BE0FB6893F89C
:101194003830012B01D1022374E0FB68012283F86B
:1011A4003820FB680022DA63FB68212283F83920A7
:1011B400FFF796F87861FB68FA889A84FB68FA88E6
:1011C400DA8442E0FB68DB8C9BB2013B9AB2FB6899
:1011D400DA84FB689B68B3F5805F22D13B68009397
:1011E4007B6900228021F86800F0F6F80346002BA2
:1011F40001D0032346E0BB683B613B691B881A4668
:10120400FB681B68C2F308025A60FB681B69002B69
:1012140003D1BB680233BB6017E0BB680133BB601A
:1012240013E03B6800937B6900228021F86800F09A
:10123400D3F80346002B01D0032323E0BB685A1CD8
:10124400BA601A78FB681B685A60FB68DB8C9BB237
:10125400002BB7D13B6800937B6900224021F868DA
:1012640000F0BAF80346002B01D003230AE0FB6820
:10127400202283F83920FB68002283F838200023D9
:1012840000E0022318461837BD4680BD80B588B0FB
:1012940002AFF860B9603B601346FB8000237B61BA
:1012A400FB6893F83A30DBB2202B40F09080BB68A7
:1012B400002B02D0FB88002B01D1012388E0FB68BE
:1012C40093F83830012B01D1022381E0FB6801221D
:1012D40083F83820FB680022DA63FB68222283F853
:1012E4003A20FEF7FDFF7861FB68FA889A85FB686F
:1012F400FA88DA855CE0FB68DB8D9BB2013B9AB22D
:10130400FB68DA85FB689B68B3F5805F2BD13B688B
:1013140000937B6900222021F86800F05DF8034601
:10132400002B01D0032353E0BB683B61FB681B69BE
:10133400002B0CD1FB681B685B689BB2C3F30803EA
:101344009AB23B691A80BB680233BB6030E0FB6829
:101354001B685B689BB2DBB29AB23B691A80BB68BC
:101364000133BB6024E03B6800937B6900222021A9
:10137400F86800F031F80346002B01D0032327E07E
:10138400FB681B69002B08D1FB681B685968BB68A4
:101394005A1CBA60CAB21A700AE0FB681B685B6820
:1013A400DAB2BB68591CB96002F07F02D2B21A707B
:1013B400FB68DB8D9BB2002B9DD1FB68202283F858
:1013C4003A20FB68002283F83820002300E002233F
:1013D40018461837BD4680BD80B584B000AFF860AC
:1013E400B9603B601346FB712CE0BB69B3F1FF3F6E
:1013F40028D0BB69002B07D0FEF772FF02463B687A
:10140400D31ABA699A421DD2FB681B68DA68FB6872
:101414001B6822F4D072DA60FB681B685A69FB68A7
:101424001B6822F001025A61FB68202283F83920EC
:10143400FB68202283F83A20FB68002283F83820D6
:1014440003230FE0FB681B681A68BB681340BA6883
:101454009A420CBF01230023DBB21A46FB799A425D
:10146400C3D0002318461037BD4680BD80B584B074
:1014740000AF78607B681B681B6923F440517B686C
:10148400DA687B681B680A431A617B689A687B6820
:101494001B691A437B685B691343FB607B681B68A9
:1014A400DB6823F4B05323F00C037A681268F968FC
:1014B4000B43D3607B681B685B6923F440717B68D2
:1014C4009A697B681B680A435A617B681B68524AA5
:1014D40093424ED1FFF7C2FDB860BA6813469B0031
:1014E40013449A001A447B685B689B00B2FBF3F3D5
:1014F4004A4AA2FB03235B091901BA6813469B00FD
:1015040013449A001A447B685B689B00B2FBF3F2B5
:10151400424BA3FB02035B09642000FB03F3D31AD1
:101524001B0132333D4AA2FB03235B0903F0F003A2
:101534001944BA6813469B0013449A001A447B6802
:101544005B689B00B2FBF3F2344BA3FB02035B0921
:10155400642000FB03F3D31A1B0132332F4AA2FB8E
:1015640003235B0903F00F027B681B680A449A603B
:101574004DE0FFF75FFDB860BA6813469B00134463
:101584009A001A447B685B689B00B2FBF3F3234A1E
:10159400A2FB03235B091901BA6813469B00134499
:1015A4009A001A447B685B689B00B2FBF3F21B4B06
:1015B400A3FB02035B09642000FB03F3D31A1B01A2
:1015C4003233164AA2FB03235B0903F0F0031944E8
:1015D400BA6813469B0013449A001A447B685B68FC
:1015E4009B00B2FBF3F20D4BA3FB02035B096420E7
:1015F40000FB03F3D31A1B013233084AA2FB032373
:101604005B0903F00F027B681B680A449A6000BF01
:101614001037BD4680BD00BF003801401F85EB5127
:1016240080B586B000AFFEF703FE00F0F5F800F0D9
:1016340059F900F02DF939464FF6FF7314226C481E
:10164400FFF724FE0346FB75FB7DE02B00F0A3802F
:10165400E02B00F3AC80242B52DC002BC0F2A780DB
:10166400242B00F2A48001A252F823F0CB17000827
:10167400B3170008B3170008B3170008B31700081E
:10168400B3170008B3170008B3170008B31700080E
:10169400B3170008B3170008B3170008B3170008FE
:1016A400B3170008B3170008B3170008B3170008EE
:1016B400B3170008B3170008B3170008B3170008DE
:1016C400B3170008B3170008B3170008B3170008CE
:1016D400B3170008B3170008B3170008B3170008BE
:1016E400B3170008B3170008B317000883170008DE
:1016F4003B17000823170008531700080B170008AE
:10170400A02B30D053E03B4614220021184600F0B1
:1017140081FA3B463749184600F084FA54E03B46C8
:1017240014220021184600F075FA3B463249184647
:1017340000F078FA48E03B4614220021184600F0F5
:1017440069FA3B462D49184600F06CFA3CE03B46EA
:1017540014220021184600F05DFA3B462849184639
:1017640000F060FA30E03B4614220021184600F0F5
:1017740051FA3B462349184600F054FA24E03B460C
:1017840014220021184600F045FA3B461E4918462B
:1017940000F048FA18E03B4614220021184600F0F5
:1017A40039FA3B461949184600F03CFA0CE03B462E
:1017B40014220021184600F02DFA3B46144918461D
:1017C40000F030FA00E000BF20211248FFF746F88D
:1017D4003B461846FEF724FD03469AB239464FF4B9
:1017E4007A730348FFF7B9FC6420FEF783FD22E710
:1017F40090000020C4240008D4240008E424000835
:10180400F4240008082500081825000828250008E5
:1018140038250008000C014080B590B000AF07F1F6
:10182400180328220021184600F0F4F93B1D002279
:101834001A605A609A60DA601A610223BB6101235C
:10184400BB621023FB6200237B6307F11803184675
:10185400FFF71CF80346002B01D000F081F80F239A
:101864007B600023BB600023FB6000233B610023FB
:101874007B613B1D00211846FFF788FA0346002BC5
:1018840001D000F06DF800BF4037BD4680BD0000B8
:1018940080B500AF114B124A1A60104B4FF4E1327D
:1018A4005A600E4B00229A600C4B0022DA600B4BFC
:1018B40000221A61094B0C225A61084B00229A61DA
:1018C400064B0022DA610548FFF7FAFB0346002BBA
:1018D40001D000F045F800BF80BD00BF900000209B
:1018E4000038014080B586B000AF07F1080300223C
:1018F4001A605A609A60DA60174B9B69164A43F083
:1019040004039361144B9B6903F004037B607B68BD
:10191400114B9B69104A43F0080393610E4B9B697A
:1019240003F008033B603B68002220210B48FEF7CC
:101934007DFF2023BB600123FB6000233B61022366
:101944007B6107F1080319460448FEF7DBFD00BF7D
:101954001837BD4680BD00BF00100240000C014096
:1019640080B400AF00BFBD4680BC704780B485B072
:1019740000AF134B9B69124A43F001039361104B70
:101984009B6903F00103BB60BB680D4BDB690C4A28
:1019940043F08053D3610A4BDB6903F080537B60CF
:1019A4007B68084B5B68FB60FB6823F0E063FB60CB
:1019B400044AFB68536000BF1437BD4680BC7047BF
:1019C400001002400000014080B588B000AF78608C
:1019D40007F1100300221A605A609A60DA607B688B
:1019E4001B681C4A934231D11B4B9B691A4A43F42E
:1019F40080439361184B9B6903F48043FB60FB684D
:101A0400154B9B69144A43F004039361124B9B6981
:101A140003F00403BB60BB684FF400733B61022313
:101A24007B610323FB6107F1100319460B48FEF7A2
:101A340069FD4FF480633B6100237B610023BB613C
:101A440007F1100319460548FEF75CFD00BF203777
:101A5400BD4680BD0038014000100240000801402E
:101A640080B400AF00BFBD4680BC704780B400AFF7
:101A7400FEE780B400AFFEE780B400AFFEE780B4B9
:101A840000AFFEE780B400AF00BFBD4680BC704726
:101A940080B400AF00BFBD4680BC704780B400AFC7
:101AA40000BFBD4680BC704780B500AFFEF706FCA2
:101AB40000BF80BD80B584B000AF7860114B1B6857
:101AC400002B02D10F4B104A1A600E4B1B68FB60AF
:101AD4000C4B1A687B6813446A46934207D900F09A
:101AE4006FF803460C221A604FF0FF3306E0054BF3
:101AF4001A687B681344034A1360FB68184610375E
:101B0400BD4680BDD0000020F000002080B400AFAE
:101B1400154B1B68144A43F001031360124B5A68B7
:101B24001149124B13404B600F4B1B680E4A23F0B4
:101B3400847323F4803313600B4B1B680A4A23F429
:101B440080231360084B5B68074A23F4FE03536049
:101B5400054B4FF41F029A60054B4FF000629A60E8
:101B640000BFBD4680BC7047001002400000FFF873
:101B740000ED00E0002103E00B4B5B5843500431BF
:101B84000A480B4B42189A42F6D30A4A02E0002351
:101B940042F8043B084B9A42F9D3FFF7B7FF00F031
:101BA40015F8FFF73DFD7047982500080000002058
:101BB4007000002070000020EC000020FEE7000010
:101BC400014B1868704700BF0C00002070B5002658
:101BD4000C4D0D4C641BA410A64209D100F05CFC12
:101BE40000260A4D0A4C641BA410A64205D170BD00
:101BF40055F8043B98470136EEE755F8043B9847FF
:101C04000136F2E790250008902500089025000889
:101C14009425000803460244934200D1704703F818
:101C2400011BF9E70EB46FF0004100B59CB01DAB89
:101C340002900690079104910848094953F8042B2F
:101C44000591006802A9019300F068F80022029B44
:101C54001A701CB05DF804EB03B070470C00002050
:101C64000802FFFF2DE9F0478E6882469E420C462B
:101C740090461F4638D88A8912F4906F32D025686E
:101C840009690133A5EB010965694B4405EB450579
:101C940005EBD5756D109D4238BF1D46530531D5F2
:101CA400294600F053FB064650B90C234FF0FF3091
:101CB400CAF80030A38943F04003A381BDE8F0874C
:101CC4004A46216900F0CEFAA38923F4906343F0D5
:101CD4008003A38126614E4426603E466561A5EBE0
:101CE4000905A560BE4200D93E46324641462068F9
:101CF40000F0C6FAA36822689B1B32440020A3604C
:101D04002260DBE72A4600F07BFB06460028E1D18F
:101D14005046216900F0CEFAC7E700002DE9F04FE4
:101D240098468B8907461B060D4614469DB00ED572
:101D34000B6963B9402100F009FB2860286120B9D0
:101D44000C233B604FF0FF30D1E040236B61002354
:101D5400099320238DF8293030234FF00109CDF861
:101D64000C80DFF8A4818DF82A3023469A4613F8B4
:101D7400012B0AB1252AF9D1BAEB040B0BD05B462F
:101D8400224629463846FFF76DFF013000F0AA804D
:101D9400099A5A4409929AF80030002B00F0A28064
:101DA40000234FF0FF32CDE905230AF1010A049321
:101DB40007938DF853301A935446052214F8011BE7
:101DC400514800F041FA049AD8B9D00644BF202300
:101DD4008DF85330110744BF2B238DF853309AF8F4
:101DE40000302A2B15D0544600204FF00A0C079AD5
:101DF400214611F8013B303B092B4ED9B0B1079273
:101E040014E0A0EB080309FA03F31343A246049376
:101E1400D2E7039B191D1B680391002BBBBF5B42D8
:101E240042F0020207930793B8BF049223782E2B43
:101E34000CD163782A2B35D1039B02341A1D1B68FD
:101E44000392002BB8BF4FF0FF330593DFF8C8A00F
:101E540003225046217800F0F7F940B14023A0EB6B
:101E64000A0003FA00F0049B01340343049314F8BA
:101E7400011B062225488DF8281000F0E5F90028FA
:101E840038D0234B1BBB039B073323F007030833D2
:101E94000393099B3344099367E70C4601200CFB29
:101EA4000232A5E700234FF00A0C194601340593CA
:101EB400204610F8012B303A092A03D9002BC5D04B
:101EC4000591C3E7044601230CFB0121F0E703ABB2
:101ED40000932A4638460F4B04A9AFF30080421CF6
:101EE4000646D6D1AB895B063FF52CAF09981DB0E9
:101EF400BDE8F08F03AB00932A463846054B04A98E
:101F040000F07CF8EBE700BF5C25000866250008BC
:101F140000000000691C0008622500082DE9F04754
:101F2400164699468A680B6907469342B8BF13461A
:101F3400336091F843200C46DDF820800AB1013368
:101F440033602368990642BF3368023333602568DF
:101F540015F0060506D104F1190AE36832689B1AE4
:101F6400AB4228DC94F84320131E226818BF0123D7
:101F740092062DD44946384604F14302C047013045
:101F840020D02368E56803F00603042B18BF00255E
:101F940032684FF00006A36808BFAD1A226908BF73
:101FA40025EAE5759342C4BF9B1AED181A34B5426D
:101FB4001AD1002008E00123524649463846C0475A
:101FC400013003D14FF0FF30BDE8F0870135C4E79D
:101FD4003020E11881F843005A1C94F8451022443B
:101FE400023382F84310C5E70123224649463846A6
:101FF400C0470130E6D00136D9E700002DE9FF479C
:102004000C46277E9146782F80469A460C9904F117
:10201400430207D8622F0AD8002F00F0D980582F26
:1020240000F0A48004F1420684F842703AE0A7F17B
:102034006303152BF6D801A050F823F0992000086B
:10204400AD200008292000082920000829200008C4
:1020540029200008AD2000082920000829200008B4
:102064002920000829200008BB210008DD200008E1
:102074009D2100082920000829200008DD210008EE
:1020840029200008DD200008292000082920000854
:10209400A52100080B6804F142061A1D1B680A609A
:1020A40084F842300123A4E0256808682E0600F174
:1020B40004030AD505680B60002D03DA2D236D4255
:1020C40084F843300A235E4819E015F0400F056890
:1020D4000B6018BF2DB2EFE70B682568181D086068
:1020E400280601D51D6802E06906FBD51D886F2FFF
:1020F4000CBF08230A235248002184F84310666861
:10210400002EA8BF2168A660A4BF21F004012160AD
:102114000DB9002E4DD01646B5FBF3F103FB115754
:10212400C75D06F8017D2F46BB420D46F4D9082B46
:102134000BD12368DF0708D5236961689942DEBFA4
:10214400302306F8013C06F1FF36921B22614B4610
:1021540021464046CDF800A003AAFFF7DFFE013078
:102164004CD14FF0FF3004B0BDE8F087344884F818
:1021740045700E68236856F8045B1F060E6014D57C
:10218400D90744BF43F0200323601DB9236823F01B
:10219400200323601023AFE7236843F02003236068
:1021A4007823284884F84530E3E75E0648BFADB29B
:1021B400E6E71646BBE70B6826681D1D60690D60DF
:1021C40035061B6801D5186002E07106FBD518803E
:1021D400002316462361BAE70B681A1D0A601E68BD
:1021E40000213046626800F02FF808B1801B60605F
:1021F40063682361002384F84330A8E732464946E4
:1022040040462369D0470130ABD023689B0713D4E1
:10221400E068039B9842B8BF1846A4E701233246FE
:1022240049464046D04701309BD00135E3680399C5
:102234005B1AAB42F2DCEBE7002504F11906F5E783
:102244006D2500087E250008034610B5C9B2024476
:102254009342184601D1002003E0047801338C42F4
:10226400F6D110BD0A44914200F1FF3300D170470A
:1022740010B511F8014B914203F8014FF9D110BD8B
:10228400884210B501EB020402D98442234607D8E0
:10229400431EA14208D011F8012B03F8012FF8E7DF
:1022A400014602448A4200D110BD13F8014D02F8E0
:1022B400014DF7E738B50546002943D051F8043CF1
:1022C4000C1F002BB8BFE41800F0D0F81E4A1368A6
:1022D400104633B9636014602846BDE8384000F006
:1022E400CBB8A3420AD921686218934201BF1A6885
:1022F4005B685218226063600460EDE71A465B680D
:102304000BB1A342FAD911685018A0420BD120682E
:102314000144501883421160DED118685B6801449F
:1023240011605360D8E702D90C232B60D4E72068EE
:1023340021188B4201BF19685B680918216063602A
:102344005460C9E738BD00BFD4000020F8B5CD1CE7
:1023540025F0030508350C2D38BF0C25002D064645
:1023640001DBA94203D90C2333600020F8BD00F03F
:102374007DF821490A6814469CB9204F3B6823B96B
:102384002146304600F062F838602946304600F0B5
:102394005DF8431C23D10C233046336000F06CF805
:1023A400E3E723685B1B17D40B2B03D923601C447E
:1023B400256004E06368A2420CBF0B6053603046A2
:1023C40000F05AF804F10B00231D20F00700C21A94
:1023D400CCD01B1AA350C9E722466468CCE7C41CBE
:1023E40024F00304A042E3D0211A304600F02EF872
:1023F4000130DDD1CFE700BFD4000020D800002099
:10240400F8B5074614460E4621B91146BDE8F84012
:10241400FFF79CBF22B9FFF74DFF25462846F8BDBC
:1024240000F030F8A0420FD221463846FFF78EFF65
:1024340005460028F2D031462246FFF713FF314605
:102444003846FFF737FFE9E73546E7E738B50023B5
:10245400054D044608462B60FFF72CFB431C02D1B4
:102464002B6803B1236038BDDC000020014800F074
:1024740011B800BFE4000020014800F00CB800BF10
:10248400E400002051F8043C181F002BBCBF0B587B
:10249400C018704770477047F8B500BFF8BC08BC57
:1024A4009E467047F8B500BFF8BC08BC9E4670470E
:1024B40002030405060708090A0B0C0D0E0F101081
:1024C40073746174655F627573790D0A00000000AE
:1024D40073746174655F627573795F72780D0A0055
:1024E40073746174655F627573795F74780D0A0043
:1024F40073746174655F627573795F74785F727801
:102504000D0A000073746174655F74696D656F759D
:10251400740D0A0073746174655F72656164790D8A
:102524000A00000073746174655F6572726F720DE6
:102534000A00000064656661756C740D0A00000091
:10254400000000000000000001020304060708095F
:102554000000000001020304232D302B2000686CCE
:102564004C006566674546470030313233343536B2
:1025740037383941424344454600303132333435EB
:0C25840036373839616263646566000018
:042590000902000834
:04259400E501000855
:1025980010000000010000000024F40010000020DA
:1025A8000000000000000000000000000000000023
:1025B8000000000000000000000000000000000013
:1025C8000000000000000000000000000000000003
:1025D80000000000000000000000000000000000F3
:1025E80000000000000000000000000000000000E3
:1025F80000000000000000000000000000000000D3
:0400000508001B795B
:00000001FF
