:020000040800F2
:10000000000001205114000895130008A1130008F6
:10001000A7130008AD130008B31300080000000088
:10002000000000000000000000000000B9130008FC
:10003000C513000800000000D1130008DD130008FC
:1000400099140008991400089914000899140008DC
:1000500099140008991400089914000899140008CC
:1000600099140008991400089914000899140008BC
:1000700099140008991400089914000899140008AC
:10008000991400089914000899140008991400089C
:10009000991400089914000899140008991400088C
:1000A000991400089914000899140008991400087C
:1000B000991400089914000899140008991400086C
:1000C000991400089914000899140008991400085C
:1000D000991400089914000899140008991400084C
:1000E000991400089914000899140008991400083C
:1000F000991400089914000899140008991400082C
:10010000991400089914000899140008991400081B
:10011000991400089914000899140008991400080B
:1001200099140008991400089914000899140008FB
:1001300000000000000000000000000000000000BF
:1001400000000000000000000000000000000000AF
:10015000000000000000000000000000000000009F
:10016000000000000000000000000000000000008F
:10017000000000000000000000000000000000007F
:10018000000000000000000000000000000000006F
:10019000000000000000000000000000000000005F
:1001A000000000000000000000000000000000004F
:1001B000000000000000000000000000000000003F
:1001C000000000000000000000000000000000002F
:1001D000000000000000000000000000000000001F
:0401E0005FF8E0F1F3
:1001E40010B5054C237833B9044B13B10448AFF36D
:1001F40000800123237010BD0C00002000000000CB
:10020400F414000808B5034B1BB103490348AFF3CA
:10021400008008BD0000000010000020F414000855
:1002240080B500AF084B1B68074A43F01003136006
:10023400032000F02BF9002000F008F801F07AF810
:100244000023184680BD00BF0020024080B582B064
:1002540000AF7860124B1A68124B1B7819464FF4A2
:100264007A73B3FBF1F3B2FBF3F3184600F035F9FC
:100274000346002B01D001230EE07B680F2B0AD824
:10028400002279684FF0FF3000F00BF9064A7B68D2
:100294001360002300E0012318460837BD4680BDE3
:1002A40008000020040000200000002080B400AFFB
:1002B400054B1B781A46054B1B681344034A13600D
:1002C40000BFBD4680BC7047040000202800002009
:1002D40080B400AF024B1B681846BD4680BC704713
:1002E4002800002080B584B000AF7860FFF7F0FFED
:1002F400B8607B68FB60FB68B3F1FF3F05D00A4B35
:100304001B781A46FB681344FB6000BFFFF7E0FF4D
:100314000246BB68D31AFA689A42F7D800BF00BFF6
:100324001037BD4680BD00BF0400002080B485B0F6
:1003340000AF78607B6803F00703FB600C4BDB685D
:10034400BB60BA684FF6FF031340BB60FB681A0238
:10035400BB68134343F0BF6343F40033BB60044AF8
:10036400BB68D36000BF1437BD4680BC704700BF74
:1003740000ED00E080B400AF044BDB681B0A03F01F
:1003840007031846BD4680BC704700BF00ED00E07F
:1003940080B483B000AF03463960FB7197F907302E
:1003A400002B0ADB3B68DAB20C4997F907301201DB
:1003B400D2B20B4483F800230AE03B68DAB208495E
:1003C400FB7903F00F03043B1201D2B20B441A76FB
:1003D40000BF0C37BD4680BC704700BF00E100E0A1
:1003E40000ED00E080B489B000AFF860B9607A60D5
:1003F400FB6803F00703FB61FB69C3F10703042BEC
:1004040028BF0423BB61FB690433062B02D9FB69B3
:10041400033B00E000237B614FF0FF32BB6902FA2B
:1004240003F3DA43BB681A407B699A404FF0FF310B
:100434007B6901FA03F3D9437B680B4013431846E5
:100444002437BD4680BC704780B582B000AF786069
:100454007B68013BB3F1807F01D301230FE00A4A9B
:100464007B68013B53600F214FF0FF30FFF790FF93
:10047400054B00229A60044B07221A600023184699
:100484000837BD4680BD00BF10E000E080B582B0F3
:1004940000AF78607868FFF749FF00BF0837BD46B2
:1004A40080BD80B586B000AF0346B9607A60FB7347
:1004B40000237B61FFF75EFF78617A68B968786929
:1004C400FFF790FF024697F90F3011461846FFF7E1
:1004D4005FFF00BF1837BD4680BD80B582B000AF56
:1004E40078607868FFF7B0FF034618460837BD46C2
:1004F40080BD000080B48BB000AF78603960002309
:100504007B6200233B6279E101227B6A02FA03F3F6
:10051400FB613B681B68FA691340BB61BA69FB69FC
:100524009A4240F068813B685B68A04A93425ED07F
:100534009E4A934275D89E4A934258D09C4A93420D
:100544006FD89C4A934252D09A4A934269D89A4AA5
:1005540093424CD0984A934263D8984A934246D0E7
:10056400964A93425DD8122B2AD8122B59D801A24D
:1005740052F823F0F3050008CD050008DF05000854
:100584002106000827060008270600082706000899
:100594002706000827060008270600082706000883
:1005A4002706000827060008270600082706000873
:1005B4002706000827060008D5050008E9050008F5
:1005C4007F4A934213D02CE03B68DB683B6229E00E
:1005D4003B68DB6804333B6224E03B68DB68083338
:1005E4003B621FE03B68DB680C333B621AE03B680C
:1005F4009B68002B02D104233B6213E03B689B6899
:10060400012B05D108233B627B68FA691A6109E072
:1006140008233B627B68FA695A6103E000233B626A
:1006240000E000BFBB69FF2B01D87B6801E07B6859
:1006340004337B61BB69FF2B02D87B6A9B0002E019
:100644007B6A083B9B003B617B691A680F213B690D
:1006540001FA03F3DB431A40396A3B6901FA03F3F5
:100664001A437B691A603B685B6803F08053002B74
:1006740000F0C180534B9B69524A43F001039361DC
:10068400504B9B6903F00103BB60BB684E4A7B6A15
:100694009B08023352F82330FB607B6A03F00303A8
:1006A4009B000F2202FA03F3DB43FA681340FB605A
:1006B4007B68464A93421FD07B68454A934219D0CF
:1006C4007B68444A934213D07B68434A93420DD0DB
:1006D4007B68424A934207D07B68414A934201D1E6
:1006E40005230AE0062308E0042306E0032304E0CC
:1006F400022302E0012300E000237A6A02F00302ED
:1007040092009340FA681343FB602F497B6A9B086D
:100714000233FA6841F823203B685B6803F48033B2
:10072400002B06D02F4B1A682E49BB6913430B606C
:1007340006E02C4B1A68BB69DB432A4913400B6063
:100744003B685B6803F40033002B06D0254B5A68E2
:100754002449BB6913434B6006E0224B5A68BB69CA
:10076400DB43204913404B603B685B6803F4801310
:10077400002B06D01B4B9A681A49BB6913438B6044
:1007840006E0184B9A68BB69DB43164913408B603B
:100794003B685B6803F40013002B25D0114BDA6827
:1007A4001049BB691343CB6025E000BF0000321041
:1007B400000031100000221000002110000012106F
:1007C4000000111000100240000001400008014028
:1007D400000C0140001001400014014000180140C9
:1007E400001C0140000401400B4BDA68BB69DB4389
:1007F40009491340CB607B6A01337B623B681A680A
:100804007B6A22FA03F3002B7FF47EAE00BF00BFA5
:100814002C37BD4680BC70470004014080B485B0CD
:1008240000AF78600B467B807B689A687B881340B6
:10083400002B02D00123FB7301E00023FB73FB7B3D
:1008440018461437BD4680BC704780B483B000AFEF
:1008540078600B467B8013467B707B78002B03D03B
:100864007A887B681A6103E07B881A047B681A61C2
:1008740000BF0C37BD4680BC7047000080B586B011
:1008840000AF78607B68002B01D101236CE27B68A8
:100894001B6803F00103002B00F08780924B5B6818
:1008A40003F00C03042B0CD08F4B5B6803F00C0398
:1008B400082B12D18C4B5B6803F48033B3F5803F73
:1008C4000BD1894B1B6803F40033002B6CD07B687D
:1008D4005B68002B68D1012346E27B685B68B3F553
:1008E400803F06D1804B1B687F4A43F480331360FA
:1008F4002EE07B685B68002B0CD17B4B1B687A4A2B
:1009040023F480331360784B1B68774A23F48023E5
:1009140013601DE07B685B68B3F5A02F0CD1724BAC
:100924001B68714A43F4802313606F4B1B686E4A43
:1009340043F4803313600BE06B4B1B686A4A23F467
:1009440080331360684B1B68674A23F48023136069
:100954007B685B68002B13D0FFF7BAFC386108E0B2
:10096400FFF7B6FC02463B69D31A642B01D9032373
:10097400FAE15D4B1B6803F40033002BF0D014E064
:10098400FFF7A6FC386108E0FFF7A2FC02463B69CA
:10099400D31A642B01D90323E6E1534B1B6803F4F8
:1009A4000033002BF0D100E000BF7B681B6803F02C
:1009B4000203002B63D04C4B5B6803F00C03002B49
:1009C4000BD0494B5B6803F00C03082B1CD1464B3E
:1009D4005B6803F48033002B16D1434B1B6803F090
:1009E4000203002B05D07B681B69012B01D0012376
:1009F400BAE13D4B1B6823F0F8027B685B69DB00BE
:100A0400394913430B603AE07B681B69002B20D003
:100A1400364B01221A60FFF75BFC386108E0FFF7F0
:100A240057FC02463B69D31A022B01D903239BE1ED
:100A34002D4B1B6803F00203002BF0D02A4B1B68DC
:100A440023F0F8027B685B69DB00274913430B60E2
:100A540015E0264B00221A60FFF73AFC386108E0E3
:100A6400FFF736FC02463B69D31A022B01D9032354
:100A74007AE11D4B1B6803F00203002BF0D17B6865
:100A84001B6803F00803002B3AD07B689B69002B9A
:100A940019D0174B01221A60FFF71AFC386108E0DD
:100AA400FFF716FC02463B69D31A022B01D9032334
:100AB4005AE10D4B5B6A03F00203002BF0D00120D6
:100AC40000F0A6FA1CE00A4B00221A60FFF700FCB3
:100AD40038610FE0FFF7FCFB02463B69D31A022B97
:100AE40008D9032340E100BF001002400000424245
:100AF400800442429E4B5B6A03F00203002BE9D15F
:100B04007B681B6803F00403002B00F0A68000231D
:100B1400FB75974BDB6903F08053002B0DD1944B8D
:100B2400DB69934A43F08053D361914BDB6903F053
:100B34008053BB60BB680123FB758E4B1B6803F4B9
:100B44008073002B18D18B4B1B688A4A43F4807343
:100B54001360FFF7BDFB386108E0FFF7B9FB0246FD
:100B64003B69D31A642B01D90323FDE0814B1B6835
:100B740003F48073002BF0D07B68DB68012B06D173
:100B84007B4B1B6A7A4A43F0010313622DE07B68B6
:100B9400DB68002B0CD1764B1B6A754A23F00103EA
:100BA4001362734B1B6A724A23F0040313621CE042
:100BB4007B68DB68052B0CD16D4B1B6A6C4A43F0D8
:100BC400040313626A4B1B6A694A43F0010313620C
:100BD4000BE0674B1B6A664A23F001031362644B04
:100BE4001B6A634A23F0040313627B68DB68002BEF
:100BF40015D0FFF76DFB38610AE0FFF769FB024689
:100C04003B69D31A41F28832934201D90323ABE002
:100C1400574B1B6A03F00203002BEED014E0FFF7DE
:100C240057FB38610AE0FFF753FB02463B69D31ACE
:100C340041F28832934201D9032395E04C4B1B6A5D
:100C440003F00203002BEED1FB7D012B05D1484BB1
:100C5400DB69474A23F08053D3617B68DB69002B4F
:100C640000F08180424B5B6803F00C03082B61D0D9
:100C74007B68DB69022B46D13F4B00221A60FFF7E9
:100C840027FB386108E0FFF723FB02463B69D31AD0
:100C9400022B01D9032367E0354B1B6803F0007373
:100CA400002BF0D17B681B6AB3F5803F08D1304B31
:100CB4005B6823F400327B689B682D4913434B60C7
:100CC4002B4B5B6823F474127B68196A7B685B6A3C
:100CD4000B43274913434B60274B01221A60FFF74C
:100CE400F7FA386108E0FFF7F3FA02463B69D31AD2
:100CF400022B01D9032337E01D4B1B6803F000735B
:100D0400002BF0D02FE01C4B00221A60FFF7E0FA12
:100D1400386108E0FFF7DCFA02463B69D31A022B7C
:100D240001D9032320E0124B1B6803F00073002B4E
:100D3400F0D118E07B68DB69012B01D1012313E0BA
:100D44000B4B5B68FB60FB6803F480327B681B6AB7
:100D54009A4206D1FB6803F470127B685B6A9A427C
:100D640001D0012300E0002318461837BD4680BD9A
:100D740000100240007000406000424280B584B020
:100D840000AF786039607B68002B01D10123D0E08B
:100D94006A4B1B6803F007033A689A4210D9674B01
:100DA4001B6823F0070265493B6813430B60634BE0
:100DB4001B6803F007033A689A4201D00123B8E0A4
:100DC4007B681B6803F00203002B20D07B681B6840
:100DD40003F00403002B05D0594B5B68584A43F4D5
:100DE400E06353607B681B6803F00803002B05D0A5
:100DF400534B5B68524A43F460535360504B5B68F7
:100E040023F0F0027B689B684D4913434B607B6879
:100E14001B6803F00103002B40D07B685B68012B47
:100E240007D1474B1B6803F40033002B15D1012372
:100E34007FE07B685B68022B07D1414B1B6803F0A2
:100E44000073002B09D1012373E03D4B1B6803F0B1
:100E54000203002B01D101236BE0394B5B6823F0C3
:100E640003027B685B68364913434B60FFF730FA33
:100E7400F8600AE0FFF72CFA0246FB68D31A41F245
:100E84008832934201D9032353E02D4B5B6803F06E
:100E94000C027B685B689B009A42EBD1274B1B6872
:100EA40003F007033A689A4210D2244B1B6823F0DC
:100EB400070222493B6813430B60204B1B6803F075
:100EC40007033A689A4201D0012332E07B681B6829
:100ED40003F00403002B08D0194B5B6823F4E06291
:100EE4007B68DB68164913434B607B681B6803F01F
:100EF4000803002B09D0124B5B6823F460527B6813
:100F04001B69DB000E4913434B6000F021F80246D5
:100F14000B4B5B681B0903F00F030A49CB5C22FAF5
:100F240003F3094A1360094B1B681846FFF78EF94F
:100F3400002318461037BD4680BD00BF0020024084
:100F4400001002401C1500080800002000000020CA
:100F540090B48AB000AF2A4B3C1D0FCB84E80F003D
:100F640040F201233B800023FB610023BB6100238B
:100F74007B6200237B6100233B62224B5B68FB6145
:100F8400FB6903F00C03042B02D0082B03D02DE0E3
:100F94001D4B3B622DE0FB699B0C03F00F0307F133
:100FA4002802134413F8243C7B61FB6903F4803367
:100FB400002B13D0134B5B685B0C03F0010307F1A8
:100FC4002802134413F8283CBB617B690E4A02FBD8
:100FD40003F2BB69B2FBF3F37B6204E07B690B4A67
:100FE40002FB03F37B627B6A3B6202E0064B3B62DB
:100FF40000BF3B6A18462837BD4690BC704700BF07
:101004000C1500080010024000127A0000093D008F
:1010140080B485B000AF78600A4B1B680A4AA2FB13
:1010240003235B0A7A6802FB03F3FB6000BFFB68DF
:101034005A1EFA60002BF9D100BF00BF1437BD4619
:1010440080BC704708000020D34D621080B582B088
:1010540000AF0346FB71FB79002B02D0012B07D0B4
:101064000DE000224FF480710748FFF7EEFB06E025
:1010740001224FF480710448FFF7E7FB00BF00BF73
:101084000837BD4680BD00BF000C014080B500AFED
:1010940004212348FFF7C2FB0346002B14D1082187
:1010A4001F48FFF7BBFB0346002B0DD110211C4842
:1010B400FFF7B4FB0346002B06D101211948FFF7C3
:1010C400ADFB0346012B01D0FF2326E00A20FFF7E6
:1010D40009F904211248FFF7A1FB0346002B01D1B3
:1010E40000231AE008210E48FFF798FB0346002B63
:1010F40001D1012311E010210948FFF78FFB0346BA
:10110400002B01D1022308E001210648FFF786FBEA
:101114000346012B01D10323FFE7184680BD00BF1E
:10112400001801400008014080B582B000AFFFF70D
:1011340077F800F043F800F07DF8012220211D48E3
:10114400FFF783FB012220211B48FFF77EFBFFF7FB
:101154009DFF0346FB71FB79032BF8D801A252F8DB
:1011640023F000BF791100088111000889110008DB
:101174009F1100080020FFF769FF19E00120FFF725
:1011840065FF15E0012220210A48FFF75EFB0022DB
:1011940020210948FFF759FB0AE0002220210548D5
:1011A400FFF753FB012220210348FFF74EFB00BF4A
:1011B400CDE700BF000C01400018014080B590B09D
:1011C40000AF07F1180328220021184600F088F91F
:1011D4003B1D00221A605A609A60DA601A61022389
:1011E400BB610123BB621023FB6200237B6307F115
:1011F40018031846FFF742FB0346002B01D000F00A
:1012040093F80F237B600023BB600023FB60002363
:101214003B6100237B613B1D00211846FFF7AEFDB7
:101224000346002B01D000F07FF800BF4037BD46D5
:1012340080BD000080B588B000AF07F11003002224
:101244001A605A609A60DA60334B9B69324A43F001
:1012540040039361304B9B6903F04003FB60FB68E0
:101264002D4B9B692C4A43F0040393612A4B9B69E1
:1012740003F00403BB60BB68274B9B69264A43F019
:1012840008039361244B9B6903F008037B607B682C
:10129400002220212148FFF7D8FA00224FF4907150
:1012A4001F48FFF7D2FA1C233B6100237B61002314
:1012B400BB6107F1100319461848FFF71BF92023F7
:1012C4003B6101237B610023BB610223FB6107F1C6
:1012D400100319461148FFF70DF901233B61002360
:1012E4007B610023BB6107F1100319460D48FFF72A
:1012F40001F94FF490733B6101237B610023BB61CF
:101304000223FB6107F1100319460548FFF7F2F8C1
:1013140000BF2037BD4680BD0010024000180140C8
:10132400000C01400008014080B400AF00BFBD467E
:1013340080BC704780B485B000AF134B9B69124AE0
:1013440043F001039361104B9B6903F00103BB60FD
:10135400BB680D4BDB690C4A43F08053D3610A4BE5
:10136400DB6903F080537B607B68084B5B68FB6040
:10137400FB6823F0E063FB60044AFB68536000BF32
:101384001437BD4680BC7047001002400000014085
:1013940080B400AF00BFBD4680BC704780B400AFCE
:1013A400FEE780B400AFFEE780B400AFFEE780B490
:1013B40000AFFEE780B400AF00BFBD4680BC7047FD
:1013C40080B400AF00BFBD4680BC704780B400AF9E
:1013D40000BFBD4680BC704780B500AFFEF766FF16
:1013E40000BF80BD80B400AF154B1B68144A43F0A6
:1013F40001031360124B5A681149124B13404B609E
:101404000F4B1B680E4A23F0847323F4803313605C
:101414000B4B1B680A4A23F480231360084B5B6858
:10142400074A23F4FE035360054B4FF41F029A60EE
:10143400054B4FF000629A6000BFBD4680BC704708
:10144400001002400000FFF800ED00E0002103E07E
:101454000B4B5B58435004310A480B4B42189A42D9
:10146400F6D30A4A02E0002342F8043B084B9A42AE
:10147400F9D3FFF7B7FF00F00FF8FFF755FE7047F9
:1014840034150008000000200C0000200C0000208F
:101494002C000020FEE7000070B500260C4D0D4C1A
:1014A400641BA410A64209D100F022F800260A4DBC
:1014B4000A4C641BA410A64205D170BD55F8043B28
:1014C40098470136EEE755F8043B98470136F2E7B2
:1014D4002C1500082C1500082C15000830150008E0
:1014E40003460244934200D1704703F8011BF9E715
:1014F400F8B500BFF8BC08BC9E467047F8B500BFFD
:08150400F8BC08BC9E467047CC
:10150C0002030405060708090A0B0C0D0E0F101038
:10151C000000000000000000010203040607080997
:04152C0009020008A8
:04153000E5010008C9
:0C15340010000000010000000024F40082
:04000005080014518A
:00000001FF
