:020000040800F2
:1000000000000120D54300085D4200086942000855
:100010006F420008754200087B42000800000000A3
:100020000000000000000000000000008142000805
:100030008D4200080000000099420008A542000817
:100040001D4400081D4400081D4400081D4400080C
:100050001D4400081D4400081D4400081D440008FC
:100060001D4400081D4400081D4400081D440008EC
:100070001D4400081D440008B1420008C5420008A4
:100080001D4400081D440008D94200081D44000812
:100090001D4400081D4400081D4400081D440008BC
:1000A0001D4400081D4400081D4400081D440008AC
:1000B0001D4400081D4400081D4400081D4400089C
:1000C0001D4400081D4400081D4400081D4400088C
:1000D0001D440008ED4200081D4400081D440008AE
:1000E0001D4400081D4400081D4400081D4400086C
:1000F0001D4400081D4400081D4400080143000879
:100100001D4400081D4400081D4400081D4400084B
:100110001D4400081D4400081D4400081D4400083B
:100120001D4400081D4400081D4400081D4400082B
:1001300000000000000000000000000000000000BF
:1001400000000000000000000000000000000000AF
:10015000000000000000000000000000000000009F
:10016000000000000000000000000000000000008F
:10017000000000000000000000000000000000007F
:10018000000000000000000000000000000000006F
:10019000000000000000000000000000000000005F
:1001A000000000000000000000000000000000004F
:1001B000000000000000000000000000000000003F
:1001C000000000000000000000000000000000002F
:1001D000000000000000000000000000000000001F
:0401E0005FF8E0F1F3
:1001E80010B5054C237833B9044B13B10448AFF369
:1001F80000800123237010BD700000200000000063
:10020800F84C000808B5034B1BB103490348AFF38A
:10021800008008BD0000000074000020F84C0008B1
:100228004FF0FF0C1CEAD0521EBF1CEAD15392EAD1
:100238000C0F93EA0C0F6FD01A4480EA010C4002AD
:1002480018BF5FEA41211ED04FF0006343EA501007
:1002580043EA5111A0FB01310CF00040B1F5000F49
:100268003EBF490041EAD3715B0040EA010062F1F8
:100278007F02FD2A1DD8B3F1004F40EBC25008BFE2
:1002880020F00100704790F0000F0CF0004C08BF00
:1002980049024CEA502040EA51207F3AC2BFD2F1CD
:1002A800FF0340EAC250704740F400004FF00003DB
:1002B800013A5DDC12F1190FDCBF00F00040704715
:1002C800C2F10002410021FA02F1C2F1200200FA53
:1002D80002FC5FEA310040F1000053EA4C0308BF1A
:1002E80020EADC70704792F0000F00F0004C02BF6B
:1002F800400010F4000F013AF9D040EA0C0093F0E6
:10030800000F01F0004C02BF490011F4000F013B3F
:10031800F9D041EA0C018FE70CEAD15392EA0C0FAD
:1003280018BF93EA0C0F0AD030F0004C18BF31F018
:10033800004CD8D180EA010000F00040704790F0EE
:10034800000F17BF90F0004F084691F0000F91F092
:10035800004F14D092EA0C0F01D142020FD193EA58
:100368000C0F03D14B0218BF084608D180EA0100E0
:1003780000F0004040F0FE4040F40000704740F0BC
:10038800FE4040F44000704781F0004102E000BFA9
:1003980083F0004330B54FEA41044FEA430594EA3D
:1003A800050F08BF90EA020F1FBF54EA000C55EA78
:1003B800020C7FEA645C7FEA655C00F0E2804FEA49
:1003C8005454D4EB5555B8BF6D420CDD2C4480EA2B
:1003D800020281EA030382EA000083EA010180EA5B
:1003E800020281EA0303362D88BF30BD11F0004FA9
:1003F8004FEA01314FF4801C4CEA113102D04042DF
:1004080061EB410113F0004F4FEA03334CEA133319
:1004180002D0524263EB430394EA050F00F0A78031
:10042800A4F10104D5F1200E0DDB02FA0EFC22FA2C
:1004380005F2801841F1000103FA0EF2801843FA20
:1004480005F359410EE0A5F120050EF1200E012A11
:1004580003FA0EFC28BF4CF0020C43FA05F3C0184F
:1004680051EBE37101F0004507D54FF0000EDCF1C8
:10047800000C7EEB00006EEB0101B1F5801F1BD371
:10048800B1F5001F0CD349085FEA30004FEA3C0C75
:1004980004F101044FEA445212F5800F80F09A806B
:1004A800BCF1004F08BF5FEA500C50F1000041EB6F
:1004B800045141EA050130BD5FEA4C0C404141EB73
:1004C8000101013C28BFB1F5801FE9D291F0000F6E
:1004D80004BF01460020B1FA81F308BF2033A3F11D
:1004E8000B03B3F120020CDA0C3208DD02F1140C14
:1004F800C2F10C0201FA0CF021FA02F10CE002F14F
:100508001402D8BFC2F1200C01FA02F120FA0CFC47
:10051800DCBF41EA0C019040E41AA2BF01EB045190
:10052800294330BD6FEA04041F3C1CDA0C340EDC8E
:1005380004F11404C4F1200220FA04F001FA02F3D1
:1005480040EA030021FA04F345EA030130BDC4F18F
:100558000C04C4F1200220FA02F001FA04F340EA84
:100568000300294630BD21FA04F0294630BD94F035
:10057800000F83F4801306BF81F480110134013D1C
:100588004EE77FEA645C18BF7FEA655C29D094EA8D
:10059800050F08BF90EA020F05D054EA000C04BF0B
:1005A8001946104630BD91EA030F1EBF00210020F6
:1005B80030BD5FEA545C05D14000494128BF41F095
:1005C800004130BD14F580043CBF01F5801130BDF9
:1005D80001F0004545F0FE4141F470014FF0000084
:1005E80030BD7FEA645C1ABF194610467FEA655C35
:1005F8001CBF0B46024650EA013406BF52EA0335D7
:1006080091EA030F41F4002130BD00BF90F0000FC4
:1006180004BF0021704730B54FF4806404F1320400
:100628004FF000054FF0000150E700BF90F0000FB9
:1006380004BF0021704730B54FF4806404F13204E0
:1006480010F0004548BF40424FF000013EE700BFB0
:1006580042004FEAE2014FEA31014FEA02701FBF40
:1006680012F07F4393F07F4F81F06051704732F072
:100678007F4208BF704793F07F4F04BF41F40021C9
:10068800704730B54FF4607401F0004521F0004127
:100698001CE700BF50EA010208BF704730B54FF0B1
:1006A80000050AE050EA010208BF704730B511F0B2
:1006B800004502D5404261EB41014FF4806404F1EA
:1006C80032045FEA915C3FF4D8AE4FF003025FEA70
:1006D800DC0C18BF03325FEADC0C18BF033202EBF4
:1006E800DC02C2F1200300FA03FC20FA02F001FA4E
:1006F80003FE40EA0E0021FA02F11444BDE600BFF1
:1007080070B54FF0FF0C4CF4E06C1CEA11541DBF9F
:100718001CEA135594EA0C0F95EA0C0F00F0DEF86A
:100728002C4481EA030621EA4C5123EA4C5350EA4F
:10073800013518BF52EA033541F4801143F48013A0
:1007480038D0A0FB02CE4FF00005E1FB02E506F031
:100758000042E0FB03E54FF00006E1FB03569CF086
:10076800000F18BF4EF0010EA4F1FF04B6F5007F8C
:1007780064F5407404D25FEA4E0E6D4146EB0606FE
:1007880042EAC62141EA55514FEAC52040EA5E5087
:100798004FEACE2EB4F1FD0C88BFBCF5E06F1ED831
:1007A800BEF1004F08BF5FEA500E50F1000041EB68
:1007B800045170BD06F0004646EA010140EA020015
:1007C80081EA0301B4EB5C04C2BFD4EB0C0541EA37
:1007D800045170BD41F480114FF0000E013C00F34C
:1007E800AB8014F1360FDEBF002001F0004170BD70
:1007F800C4F10004203C35DA0C341BDC04F1140489
:10080800C4F1200500FA05F320FA04F001FA05F214
:1008180040EA020001F0004221F0004110EBD370E1
:1008280021FA04F642EB06015EEA430E08BF20EA0D
:10083800D37070BDC4F10C04C4F1200500FA04F3B0
:1008480020FA05F001FA04F240EA020001F0004142
:1008580010EBD37041F100015EEA430E08BF20EAB5
:10086800D37070BDC4F1200500FA05F24EEA020EFD
:1008780020FA04F301FA05F243EA020321FA04F02C
:1008880001F0004121FA04F220EA020000EBD370E3
:100898005EEA430E08BF20EAD37070BD94F0000FE3
:1008A8000FD101F00046400041EB010111F4801F17
:1008B80008BF013CF7D041EA060195F0000F18BFC8
:1008C800704703F00046520043EB030313F4801F04
:1008D80008BF013DF7D043EA0603704794EA0C0FBE
:1008E8000CEA135518BF95EA0C0F0CD050EA4106D4
:1008F80018BF52EA4306D1D181EA030101F0004151
:100908004FF0000070BD50EA410606BF1046194678
:1009180052EA430619D094EA0C0F02D150EA013684
:1009280013D195EA0C0F05D152EA03361CBF1046C5
:1009380019460AD181EA030101F0004141F0FE4164
:1009480041F470014FF0000070BD41F0FE4141F4E8
:10095800780170BD70B54FF0FF0C4CF4E06C1CEAE8
:1009680011541DBF1CEA135594EA0C0F95EA0C0F9D
:1009780000F0A7F8A4EB050481EA030E52EA033558
:100988004FEA013100F088804FEA03334FF0805579
:1009980045EA131343EA12634FEA022245EA1115A6
:1009A80045EA10654FEA00260EF000419D4208BF57
:1009B800964244F1FD0404F5407402D25B084FEA04
:1009C8003202B61A65EB03055B084FEA32024FF4B0
:1009D80080104FF4002CB6EB020E75EB030E22BF0D
:1009E800B61A754640EA0C005B084FEA3202B6EBCD
:1009F800020E75EB030E22BFB61A754640EA5C007C
:100A08005B084FEA3202B6EB020E75EB030E22BF0B
:100A1800B61A754640EA9C005B084FEA3202B6EB0C
:100A2800020E75EB030E22BFB61A754640EADC00CB
:100A380055EA060E18D04FEA051545EA16754FEA2D
:100A480006164FEAC30343EA52734FEAC2025FEA4B
:100A58001C1CC0D111F4801F0BD141EA00014FF0DA
:100A680000004FF0004CB6E711F4801F04BF0143AB
:100A78000020B4F1FD0C88BFBCF5E06F3FF6AFAEC7
:100A8800B5EB030C04BFB6EB020C5FEA500C50F157
:100A9800000041EB045170BD0EF0004E4EEA1131DA
:100AA80014EB5C04C2BFD4EB0C0541EA045170BDE1
:100AB80041F480114FF0000E013C90E645EA060E25
:100AC8008DE60CEA135594EA0C0F08BF95EA0C0F53
:100AD8003FF43BAF94EA0C0F0AD150EA01347FF49B
:100AE80034AF95EA0C0F7FF425AF104619462CE772
:100AF80095EA0C0F06D152EA03353FF4FDAE1046D5
:100B0800194622E750EA410618BF52EA43067FF425
:100B1800C5AE50EA41047FF40DAF52EA43057FF4B5
:100B2800EBAE12E74FEA4102B2F1E04324BFB3F55E
:100B3800001CDCF1FE5C0DD901F0004C4FEAC0024C
:100B48004CEA5070B2F1004F40EB830008BF20F030
:100B58000100704711F0804F21D113F13872BCBFEA
:100B680001F00040704741F480114FEA5252C2F13F
:100B78001802C2F1200C10FA0CF320FA02F018BF88
:100B880040F001004FEAC1234FEAD32303FA0CFCDB
:100B980040EA0C0023FA02F34FEA4303CCE77FEA6A
:100BA800625307D150EA01331EBF4FF0FE4040F4B4
:100BB8004000704701F0004040F0FE4040F4000063
:100BC800704700BF80F0004002E000BF81F00041A4
:100BD80042001FBF5FEA410392EA030F7FEA226CDB
:100BE8007FEA236C6AD04FEA1262D2EB1363C1BF6B
:100BF800D218414048404140B8BF5B42192B88BFDA
:100C0800704710F0004F40F4000020F07F4018BFFC
:100C1800404211F0004F41F4000121F07F4118BF1C
:100C2800494292EA030F3FD0A2F1010241FA03FCC4
:100C380010EB0C00C3F1200301FA03F100F00043AC
:100C480002D5494260EB4000B0F5000F13D3B0F174
:100C5800807F06D340084FEA310102F10102FE2AE3
:100C680051D2B1F1004F40EBC25008BF20F0010053
:100C780040EA03007047490040EB0000013A28BFF2
:100C8800B0F5000FEDD2B0FA80FCACF1080CB2EB75
:100C98000C0200FA0CF0AABF00EBC25052421843F3
:100CA800BCBFD0401843704792F0000F81F4000198
:100CB80006BF80F400000132013BB5E74FEA41036B
:100CC8007FEA226C18BF7FEA236C21D092EA030FD7
:100CD80004D092F0000F08BF0846704790EA010F51
:100CE8001CBF0020704712F07F4F04D1400028BF7E
:100CF80040F00040704712F100723CBF00F5000060
:100D0800704700F0004343F0FE4040F40000704795
:100D18007FEA226216BF08467FEA23630146420241
:100D280006BF5FEA412390EA010F40F48000704754
:100D38004FF0000304E000BF10F0004348BF4042FA
:100D48005FEA000C08BF704743F0964301464FF036
:100D580000001CE050EA010208BF70474FF0000392
:100D68000AE000BF50EA010208BF704711F00043D3
:100D780002D5404261EB41015FEA010C02BF8446A3
:100D88000146002043F0B64308BFA3F18053A3F502
:100D98000003BCFA8CF2083AA3EBC25310DB01FA49
:100DA80002FC634400FA02FCC2F12002BCF1004FCD
:100DB80020FA02F243EB020008BF20F0010070475E
:100DC80002F1200201FA02FCC2F1200250EA4C00B2
:100DD80021FA02F243EB020008BF20EADC707047F8
:100DE8004FEA4002B2F1FE4F0FD34FF09E03B3EB30
:100DF80012620DD94FEA002343F0004310F0004F70
:100E080023FA02F018BF404270474FF000007047C5
:100E180012F1610F01D1420205D110F0004008BF64
:100E28006FF0004070474FF00000704780B500AF8A
:100E3800084B1B68074A43F010031360032000F0B7
:100E480055FE002000F008F803F0C6F80023184605
:100E580080BD00BF0020024080B582B000AF78603E
:100E6800124B1A68124B1B7819464FF47A73B3FB6E
:100E7800F1F3B2FBF3F3184600F06DFE0346002BC6
:100E880001D001230EE07B680F2B0AD80022796875
:100E98004FF0FF3000F035FE064A7B6813600023F0
:100EA80000E0012318460837BD4680BD0800002031
:100EB800040000200000002080B400AF054B1B7820
:100EC8001A46054B1B681344034A136000BFBD460E
:100ED80080BC7047040000208C00002080B400AF64
:100EE800024B1B681846BD4680BC70478C0000202A
:100EF80080B584B000AF7860FFF7F0FFB8607B681A
:100F0800FB60FB68B3F1FF3F05D00A4B1B781A461C
:100F1800FB681344FB6000BFFFF7E0FF0246BB68B5
:100F2800D31AFA689A42F7D800BF00BF1037BD46F7
:100F380080BD00BF0400002080B586B000AF786097
:100F48000023FB7500233B610023BB600023FB608B
:100F58007B68002B01D10123CEE07B689B68002BC6
:100F68007B689B6A002B09D17B680022DA627B6868
:100F7800002283F82420786803F060F8786800F08D
:100F8800A5FC0346FB757B689B6A03F01003002BE6
:100F980040F0A980FB7D002B40F0A5807B689B6A10
:100FA80023F4885323F0020343F002027B689A6219
:100FB8007B685A687B681B6851498B420AD17B68F9
:100FC800DB69B3F5402F02D07B68DB6904E04FF49E
:100FD800002301E07B68DB691A437B681B7B5B00AD
:100FE8001343BA681343BB607B689B68B3F5807F83
:100FF80003D07B689B68012B02D14FF4807300E01B
:1010080000233A6913433B617B681B7D012B19D18F
:101018007B681B7B002B09D17B689B69013B5A03CA
:101028003B69134343F400633B610BE07B689B6AB5
:1010380043F020027B689A627B68DB6A43F0010216
:101048007B68DA627B681B685B6823F469417B68AC
:101058001B683A690A435A607B681B689A68294B7F
:1010680013407A681268B9680B4393607B689B6881
:10107800B3F5807F03D07B689B68012B04D17B6824
:101088001B69013B1B05FB607B681B68DB6A23F45B
:1010980070017B681B68FA680A43DA627B681B6820
:1010A8009A68194B1340BA689A420BD17B680022A0
:1010B800DA627B689B6A23F0030343F001027B68D2
:1010C8009A6218E07B689B6A23F0120343F01002CF
:1010D8007B689A627B68DB6A43F001027B68DA62AC
:1010E8000123FB7507E07B689B6A43F010027B686D
:1010F8009A620123FB75FB7D18461837BD4680BDF3
:10110800003C0140FDF7E1FFFE0E1FFF80B584B0F3
:1011180000AF78600023FB737B6893F82430012BC1
:1011280001D1022398E07B68012283F824207868A3
:1011380000F07AFB0346FB73FB7B002B40F08780B3
:101148007B689B6A23F4407323F0010343F48072A5
:101158007B689A627B681B68414A934205D1414B80
:101168005B6803F47023002B15D17B689B6A23F41A
:1011780080127B689A627B681B685B6803F48063F3
:10118800002B26D07B689B6A23F4405343F480529B
:101198007B689A621DE07B689B6A43F480127B68D7
:1011A8009A627B681B682F4A934204D07B681B684D
:1011B8002B4A93420DD12B4B5B6803F48063002BC1
:1011C80007D07B689B6A23F4405343F480527B68C2
:1011D8009A627B689B6A03F48053002B06D07B6875
:1011E800DB6A23F006027B68DA6202E07B68002291
:1011F800DA627B68002283F824207B681B686FF022
:1012080002021A607B681B689B6803F46023B3F5CD
:10121800602F13D17B681B68114A934205D1114B8B
:101228005B6803F47023002B08D17B681B689A68FD
:101238007B681B6842F4A0029A600CE07B681B681C
:101248009A687B681B6842F480129A6003E07B68A6
:10125800002283F82420FB7B18461037BD4680BD4A
:10126800002801400024014090B587B000AF7860A5
:10127800396000237B610023FB6000233B61FFF79B
:101288002DFE78617B681B689B6803F48073002BD4
:101298000BD07B689B6A43F020027B689A627B686C
:1012A800002283F824200123C8E07B681B685B6860
:1012B80003F48073002B2AD17B681B68DB6A03F474
:1012C8007003002B23D11AE03B68B3F1FF3F16D01F
:1012D8003B68002B07D0FFF701FE02467B69D31A53
:1012E8003A689A420BD27B689B6A43F004027B6897
:1012F8009A627B68002283F8242003239EE07B689F
:101308001B681B6803F00203002BDDD06CE04D4B1B
:101318001C68022001F0F0FE0346B4FBF3F27B6880
:101328001B681969484B0B40002B18D17B681B6858
:10133800D968464B0B40002B11D17B681B68196993
:10134800434B0B40002B08D17B681B68D968414B85
:101358000B40002B01D1142320E029231EE07B68D9
:101368001B6819693A4B0B40002B06D17B681B6838
:10137800D968384B0B40002B0DD07B681B68196966
:10138800354B0B40002B08D17B681B68D968324B62
:101398000B40002B01D1542300E0FC2302FB03F394
:1013A8003B611DE03B68B3F1FF3F16D03B68002B63
:1013B80007D0FFF793FD02467B69D31A3A689A4231
:1013C8000BD27B689B6A43F004027B689A627B6855
:1013D800002283F82420032330E0FB680133FB60FC
:1013E800FB683A699A42DDD87B681B686FF0120285
:1013F8001A607B689B6A43F400727B689A627B6818
:101408001B689B6803F46023B3F5602F15D17B68D4
:101418001B7B002B11D17B689B6A23F480727B684D
:101428009A627B689B6A03F48053002B05D17B6822
:101438009B6A43F001027B689A62002318461C37B6
:10144800BD4690BD080000202449922424499200FA
:1014580092244912922449004992240080B483B00E
:1014680000AF78607B681B68DB6C18460C37BD469C
:1014780080BC704780B582B000AF78607B681B681D
:101488005B6803F02003202B40D17B681B681B6836
:1014980003F00203022B39D17B689B6A03F0100327
:1014A800002B05D17B689B6A43F400727B689A62C3
:1014B8007B681B689B6803F46023B3F5602F1DD11C
:1014C8007B681B7B002B19D17B681B685A687B687B
:1014D8001B6822F020025A607B689B6A23F48072A2
:1014E8007B689A627B689B6A03F48053002B05D162
:1014F8007B689B6A43F001027B689A62786800F017
:101508007CF87B681B686FF012021A607B681B68A6
:101518005B6803F08003802B4FD17B681B681B68D6
:1015280003F00403042B48D17B689B6A03F0100383
:10153800002B05D17B689B6A43F400527B689A6252
:101548007B681B689B6803F4E043B3F5E04F12D057
:101558007B681B685B6803F48063002B25D17B687C
:101568001B689B6803F46023B3F5602F1DD17B686B
:101578001B7B002B19D17B681B685A687B681B682A
:1015880022F080025A607B689B6A23F480527B6851
:101598009A627B689B6A03F48073002B05D17B6891
:1015A8009B6A43F001027B689A62786800F0C8F988
:1015B8007B681B686FF00C021A607B681B685B68AD
:1015C80003F04003402B14D17B681B681B6803F0B1
:1015D8000103012B0DD17B689B6A43F480327B6841
:1015E8009A62786800F012F87B681B686FF0010255
:1015F8001A6000BF0837BD4680BD80B483B000AF15
:10160800786000BF0C37BD4680BC704780B483B09B
:1016180000AF786000BF0C37BD4680BC7047000043
:1016280080B485B000AF786039600023FB73002375
:10163800BB607B6893F82430012B01D10223DCE0E6
:101648007B68012283F824203B685B68062B1CD842
:101658007B681B68596B3B685A6813469B001344A8
:10166800053B1F2202FA03F3DB4319403B68186865
:101678003B685A6813469B001344053B00FA03F283
:101688007B681B680A435A633CE03B685B680C2B29
:101698001CD87B681B68196B3B685A6813469B000B
:1016A8001344233B1F2202FA03F3DB4319403B6830
:1016B80018683B685A6813469B001344233B00FA9A
:1016C80003F27B681B680A431A631BE07B681B688C
:1016D800D96A3B685A6813469B001344413B1F2252
:1016E80002FA03F3DB4319403B6818683B685A6801
:1016F80013469B001344413B00FA03F27B681B68C6
:101708000A43DA623B681B68092B1CD97B681B6893
:10171800D9683B681A6813465B0013441E3B0722CE
:1017280002FA03F3DB4319403B6898683B681A6880
:1017380013465B0013441E3B00FA03F27B681B68E8
:101748000A43DA6019E07B681B6819693B681A6804
:1017580013465B001344072202FA03F3DB431940E4
:101768003B6898683B681A6813465B00134400FAA4
:1017780003F27B681B680A431A613B681B68102BDD
:1017880003D03B681B68112B32D17B681B681D4A4C
:10179800934225D17B681B689B6803F40003002BE8
:1017A80026D17B681B689A687B681B6842F4000234
:1017B8009A603B681B68102B1AD1134B1B68134A9D
:1017C800A2FB03239A0C13469B0013445B00BB60E7
:1017D80002E0BB68013BBB60BB68002BF9D107E0A6
:1017E8007B689B6A43F020027B689A620123FB7343
:1017F8007B68002283F82420FB7B18461437BD46FB
:1018080080BC7047002401400800002083DE1B4391
:1018180080B483B000AF78607B689B6A18460C3749
:10182800BD4680BC7047000080B584B000AF7860CA
:101838000023FB600023BB607B681B689B6803F088
:101848000103012B39D07B681B689A687B681B6889
:1018580042F001029A601B4B1B681B4AA2FB032340
:101868009B0CBB6002E0BB68013BBB60BB68002B04
:10187800F9D1FFF733FBF86018E0FFF72FFB0246BA
:10188800FB68D31A022B11D97B689B6A43F01002BC
:101898007B689A627B68DB6A43F001027B68DA62E4
:1018A8007B68002283F82420012307E07B681B68FB
:1018B8009B6803F00103012BDFD100231846103782
:1018C800BD4680BD0800002083DE1B4380B584B080
:1018D80000AF78600023FB607B681B689B6803F09F
:1018E8000103012B27D17B681B689A687B681B68FA
:1018F80022F001029A60FFF7F1FAF86014E0FFF7AE
:10190800EDFA0246FB68D31A022B0DD97B689B6A55
:1019180043F010027B689A627B68DB6A43F001023D
:101928007B68DA62012307E07B681B689B6803F029
:101938000103012BE3D0002318461037BD4680BDB4
:1019480080B483B000AF786000BF0C37BD4680BC60
:101958007047000080B485B000AF78607B6803F002
:101968000703FB600C4BDB68BB60BA684FF6FF03EC
:101978001340BB60FB681A02BB68134343F0BF63A4
:1019880043F40033BB60044ABB68D36000BF14371C
:10199800BD4680BC704700BF00ED00E080B400AFDA
:1019A800044BDB681B0A03F007031846BD4680BCDE
:1019B800704700BF00ED00E080B483B000AF03467D
:1019C800FB7197F90730002B0BDBFB7903F01F0243
:1019D800064997F907305B09012000FA02F241F83D
:1019E800232000BF0C37BD4680BC704700E100E0F3
:1019F80080B483B000AF03463960FB7197F90730B4
:101A0800002B0ADB3B68DAB20C4997F90730120160
:101A1800D2B20B4483F800230AE03B68DAB20849E3
:101A2800FB7903F00F03043B1201D2B20B441A7680
:101A380000BF0C37BD4680BC704700BF00E100E026
:101A480000ED00E080B489B000AFF860B9607A605A
:101A5800FB6803F00703FB61FB69C3F10703042B71
:101A680028BF0423BB61FB690433062B02D9FB6939
:101A7800033B00E000237B614FF0FF32BB6902FAB1
:101A880003F3DA43BB681A407B699A404FF0FF3191
:101A98007B6901FA03F3D9437B680B40134318466B
:101AA8002437BD4680BC704780B582B000AF7860EF
:101AB8007B68013BB3F1807F01D301230FE00A4A21
:101AC8007B68013B53600F214FF0FF30FFF790FF19
:101AD800054B00229A60044B07221A60002318461F
:101AE8000837BD4680BD00BF10E000E080B582B079
:101AF80000AF78607868FFF72DFF00BF0837BD4654
:101B080080BD80B586B000AF0346B9607A60FB73CC
:101B180000237B61FFF742FF78617A68B9687869CA
:101B2800FFF790FF024697F90F3011461846FFF766
:101B38005FFF00BF1837BD4680BD80B582B000AFDB
:101B48000346FB7197F907301846FFF735FF00BFCA
:101B58000837BD4680BD80B582B000AF7860786830
:101B6800FFF7A2FF034618460837BD4680BD0000B0
:101B780080B485B000AF78600023FB607B68002BE1
:101B880001D1012359E07B681B681A462D4B9A4204
:101B98000FD87B681B681A462B4B13442B4AA2FBB1
:101BA80003231B099A007B681A647B68284ADA6356
:101BB8000EE07B681B681A46264B1344234AA2FB97
:101BC80003231B099A007B681A647B68224ADA633C
:101BD8007B68022283F821207B681B681B68FB60F6
:101BE800FB6823F47F5323F03003FB607B685A685B
:101BF8007B689B681A437B68DB681A437B681B69B0
:101C08001A437B685B691A437B689B691A437B6844
:101C1800DB691343FA681343FB607B681B68FA6847
:101C28001A607B6800229A637B68012283F821206E
:101C38007B68002283F82020002318461437BD460D
:101C480080BC704707040240F8FFFDBFCDCCCCCC68
:101C580000000240F8FBFDBF0004024080B586B0DA
:101C680000AFF860B9607A603B600023FB75FB68E1
:101C780093F82030012B01D102234AE0FB680122AE
:101C880083F82020FB6893F82130012B3AD1FB68B8
:101C9800022283F82120FB6800229A63FB681B68F4
:101CA8001A68FB681B6822F001021A603B687A68B0
:101CB800B968F86800F076FBFB68DB6A002B08D08F
:101CC800FB681B681A68FB681B6842F00E021A6002
:101CD8000FE0FB681B681A68FB681B6822F00402A7
:101CE8001A60FB681B681A68FB681B6842F00A02E6
:101CF8001A60FB681B681A68FB681B6842F00102DF
:101D08001A6005E0FB68002283F820200223FB7597
:101D1800FB7D18461837BD4680BD000080B584B0ED
:101D280000AF78600023FB737B6893F82130022BA7
:101D380005D07B6804229A630123FB73D6E07B6895
:101D48001B681A687B681B6822F00E021A607B68A1
:101D58001B681A687B681B6822F001021A607B689E
:101D68001B681A46644B9A4258D97B681B68634AB9
:101D780093424FD07B681B68614A934248D07B6886
:101D88001B68604A934240D07B681B685E4A934256
:101D980038D07B681B685D4A934230D07B681B68EB
:101DA8005B4A934228D07B681B68534A934220D0F1
:101DB8007B681B68574A934219D07B681B68564A50
:101DC800934212D07B681B68544A93420AD07B68BE
:101DD8001B68534A934202D14FF480531BE04FF4DF
:101DE800803318E04FF4807315E0102313E00123CB
:101DF80011E04FF080730EE04FF480130BE04FF4C6
:101E0800803308E04FF4805305E04FF4807302E01C
:101E1800102300E00123434A536057E07B681B68A6
:101E2800364A93424FD07B681B68354A934248D064
:101E38007B681B68334A934240D07B681B68324AF0
:101E4800934238D07B681B68304A934230D07B6815
:101E58001B682F4A934228D07B681B68264A934206
:101E680020D07B681B682B4A934219D07B681B687B
:101E7800294A934212D07B681B68284A93420AD0A9
:101E88007B681B68264A934202D14FF480531BE0BB
:101E98004FF4803318E04FF4807315E0102313E0FB
:101EA800012311E04FF080730EE04FF480130BE034
:101EB8004FF4803308E04FF4805305E04FF480730B
:101EC80002E0102300E00123174A53607B680122D7
:101ED80083F821207B68002283F820207B685B6BD5
:101EE800002B03D07B685B6B78689847FB7B1846B0
:101EF8001037BD4680BD00BF800002400800024088
:101F08001C000240300002404400024058000240D9
:101F18006C000240080402401C04024030040240E5
:101F280044040240000402400000024080B584B02E
:101F380000AF78607B68DB6B1B68FB607B681B68A5
:101F48001B68BB607B681B6C04229A40FB681340CB
:101F5800002B00F0D680BB6803F00403002B00F0D0
:101F6800D0807B681B681B6803F02003002B07D117
:101F78007B681B681A687B681B6822F004021A6079
:101F88007B681B681A469B4B9A4258D97B681B682A
:101F9800994A93424FD07B681B68984A934248D02D
:101FA8007B681B68964A934240D07B681B68954AB9
:101FB800934238D07B681B68934A934230D07B6841
:101FC8001B68924A934228D07B681B68894A9342CF
:101FD80020D07B681B688E4A934219D07B681B68A7
:101FE8008C4A934212D07B681B688B4A93420AD072
:101FF8007B681B68894A934202D14FF480431BE0F7
:102008004FF4802318E04FF4806315E0402313E079
:10201800042311E04FF080630EE04FF480030BE0DF
:102028004FF4802308E04FF4804305E04FF48063C9
:1020380002E0402300E00423794A536057E07B68BC
:102048001B686D4A93424FD07B681B686B4A93426A
:1020580048D07B681B686A4A934240D07B681B68FB
:10206800684A934238D07B681B68674A934230D0ED
:102078007B681B68654A934228D07B681B685D4A69
:10208800934220D07B681B68614A934219D07B68D1
:102098001B68604A934212D07B681B685E4A934271
:1020A8000AD07B681B685D4A934202D14FF4804393
:1020B8001BE04FF4802318E04FF4806315E04023C1
:1020C80013E0042311E04FF080630EE04FF4800327
:1020D8000BE04FF4802308E04FF4804305E04FF411
:1020E800806302E0402300E004234E4A53607B688B
:1020F800DB6A002B00F036817B68DB6A78689847DA
:1021080030E17B681B6C02229A40FB681340002B6D
:1021180000F0F880BB6803F00203002B00F0F280A7
:102128007B681B681B6803F02003002B0BD17B68BE
:102138001B681A687B681B6822F00A021A607B68B1
:10214800012283F821207B681B681A46294B9A4292
:1021580073D97B681B68284A93426AD07B681B68DE
:10216800264A934263D07B681B68254A93425BD01A
:102178007B681B68234A934238D07B681B68224AD5
:10218800934230D07B681B68204A934228D07B68F2
:102198001B68184A934220D07B681B681C4A9342EC
:1021A80019D07B681B681B4A934212D07B681B6856
:1021B800194A93420AD07B681B68184A934202D195
:1021C8004FF4005336E04FF4003333E04FF400731C
:1021D80030E020232EE002232CE04FF0007329E0AA
:1021E8004FF4001326E04FF4003323E04FF400537C
:1021F80020E000BF80000240080002401C000240AE
:102208003000024044000240580002406C00024086
:10221800080402401C040240300402404404024006
:1022280000040240000002404FF4007302E0202343
:1022380000E002234E4A536057E07B681B684D4A12
:1022480093424FD07B681B684B4A934248D07B68C7
:102258001B684A4A934240D07B681B68484A9342AD
:1022680038D07B681B68474A934230D07B681B682C
:10227800454A934228D07B681B68444A934220D041
:102288007B681B68424A934219D07B681B68414AA5
:10229800934212D07B681B683F4A93420AD07B68FE
:1022A8001B683E4A934202D14FF400531BE04FF49F
:1022B800003318E04FF4007315E0202313E00223E5
:1022C80011E04FF000730EE04FF400130BE04FF4F1
:1022D800003308E04FF4005305E04FF4007302E0C8
:1022E800202300E002232E4A53607B68002283F8F3
:1022F80020207B689B6A002B34D07B689B6A7868B7
:1023080098472FE07B681B6C08229A40FB681340B3
:10231800002B28D0BB6803F00803002B23D07B6870
:102328001B681A687B681B6822F00E021A607B68BB
:102338001A6C7B68DB6B012101FA02F25A607B6838
:1023480001229A637B68012283F821207B6800229E
:1023580083F820207B681B6B002B04D07B681B6BE9
:102368007868984700BF00BF1037BD4680BD00BFE2
:1023780000040240080002401C00024030000240F5
:1023880044000240580002406C00024080000240B5
:10239800080402401C040240300402404404024085
:1023A8000000024080B485B000AFF860B9607A6080
:1023B8003B60FB681A6CFB68DB6B012101FA02F2D7
:1023C8005A60FB681B683A685A60FB685B68102BA8
:1023D80008D1FB681B687A689A60FB681B68BA6852
:1023E800DA6007E0FB681B68BA689A60FB681B68DC
:1023F8007A68DA6000BF1437BD4680BC70470000B9
:1024080080B48BB000AF7860396000237B62002312
:102418003B6279E101227B6A02FA03F3FB613B68C4
:102428001B68FA691340BB61BA69FB699A4240F0BC
:1024380068813B685B68A04A93425ED09E4A93429B
:1024480075D89E4A934258D09C4A93426FD89C4A6A
:10245800934252D09A4A934269D89A4A93424CD0AE
:10246800984A934263D8984A934246D0964A9342F0
:102478005DD8122B2AD8122B59D801A252F823F072
:1024880003250008DD240008EF2400083125000892
:1024980037250008372500083725000837250008A4
:1024A8003725000837250008372500083725000894
:1024B8003725000837250008372500083725000884
:1024C80037250008E5240008F92400087F4A9342CC
:1024D80013D02CE03B68DB683B6229E03B68DB6893
:1024E80004333B6224E03B68DB6808333B621FE04F
:1024F8003B68DB680C333B621AE03B689B68002B47
:1025080002D104233B6213E03B689B68012B05D191
:1025180008233B627B68FA691A6109E008233B6279
:102528007B68FA695A6103E000233B6200E000BF60
:10253800BB69FF2B01D87B6801E07B6804337B61B2
:10254800BB69FF2B02D87B6A9B0002E07B6A083BD1
:102558009B003B617B691A680F213B6901FA03F311
:10256800DB431A40396A3B6901FA03F31A437B6972
:102578001A603B685B6803F08053002B00F0C18051
:10258800534B9B69524A43F001039361504B9B693B
:1025980003F00103BB60BB684E4A7B6A9B080233A9
:1025A80052F82330FB607B6A03F003039B000F2281
:1025B80002FA03F3DB43FA681340FB607B68464A80
:1025C80093421FD07B68454A934219D07B68444A9E
:1025D800934213D07B68434A93420DD07B68424AAA
:1025E800934207D07B68414A934201D105230AE010
:1025F800062308E0042306E0032304E0022302E0A4
:10260800012300E000237A6A02F00302920093405B
:10261800FA681343FB602F497B6A9B080233FA6808
:1026280041F823203B685B6803F48033002B06D015
:102638002F4B1A682E49BB6913430B6006E02C4BDD
:102648001A68BB69DB432A4913400B603B685B6827
:1026580003F40033002B06D0254B5A682449BB6984
:1026680013434B6006E0224B5A68BB69DB432049A1
:1026780013404B603B685B6803F48013002B06D063
:102688001B4B9A681A49BB6913438B6006E0184BC9
:102698009A68BB69DB43164913408B603B685B68EB
:1026A80003F40013002B25D0114BDA681049BB69DD
:1026B8001343CB6025E000BF00003210000031104A
:1026C800000022100000211000001210000011105C
:1026D800001002400000014000080140000C0140C9
:1026E800001001400014014000180140001C014086
:1026F800000401400B4BDA68BB69DB43094913400E
:10270800CB607B6A01337B623B681A687B6A22FA7A
:1027180003F3002B7FF47EAE00BF00BF2C37BD460D
:1027280080BC70470004014080B483B000AF78607B
:102738000B467B8013467B707B78002B03D07A880E
:102748007B681A6103E07B881A047B681A6100BF02
:102758000C37BD4680BC704780B586B000AF786046
:102768007B68002B01D101236CE27B681B6803F0B6
:102778000103002B00F08780924B5B6803F00C0389
:10278800042B0CD08F4B5B6803F00C03082B12D181
:102798008C4B5B6803F48033B3F5803F0BD1894BD6
:1027A8001B6803F40033002B6CD07B685B68002B3C
:1027B80068D1012346E27B685B68B3F5803F06D1A8
:1027C800804B1B687F4A43F4803313602EE07B689C
:1027D8005B68002B0CD17B4B1B687A4A23F480334F
:1027E8001360784B1B68774A23F4802313601DE03D
:1027F8007B685B68B3F5A02F0CD1724B1B68714ADC
:1028080043F4802313606F4B1B686E4A43F4803394
:1028180013600BE06B4B1B686A4A23F48033136028
:10282800684B1B68674A23F4802313607B685B68E6
:10283800002B13D0FEF752FB386108E0FEF74EFB81
:1028480002463B69D31A642B01D90323FAE15D4B95
:102858001B6803F40033002BF0D014E0FEF73EFBB6
:10286800386108E0FEF73AFB02463B69D31A642B4D
:1028780001D90323E6E1534B1B6803F40033002B13
:10288800F0D100E000BF7B681B6803F00203002B57
:1028980063D04C4B5B6803F00C03002B0BD0494B07
:1028A8005B6803F00C03082B1CD1464B5B6803F4F0
:1028B8008033002B16D1434B1B6803F00203002B17
:1028C80005D07B681B69012B01D00123BAE13D4B80
:1028D8001B6823F0F8027B685B69DB003949134306
:1028E8000B603AE07B681B69002B20D0364B012235
:1028F8001A60FEF7F3FA386108E0FEF7EFFA0246CD
:102908003B69D31A022B01D903239BE12D4B1B688A
:1029180003F00203002BF0D02A4B1B6823F0F802C7
:102928007B685B69DB00274913430B6015E0264B86
:1029380000221A60FEF7D2FA386108E0FEF7CEFAF4
:1029480002463B69D31A022B01D903237AE11D4BB6
:102958001B6803F00203002BF0D17B681B6803F0AF
:102968000803002B3AD07B689B69002B19D0174BC2
:1029780001221A60FEF7B2FA386108E0FEF7AEFAF3
:1029880002463B69D31A022B01D903235AE10D4BA6
:102998005B6A03F00203002BF0D0012000F0D8FAA4
:1029A8001CE00A4B00221A60FEF798FA38610FE023
:1029B800FEF794FA02463B69D31A022B08D903237F
:1029C80040E100BF00100240000042428004424241
:1029D8009E4B5B6A03F00203002BE9D17B681B68FE
:1029E80003F00403002B00F0A6800023FB75974B2F
:1029F800DB6903F08053002B0DD1944BDB69934ABC
:102A080043F08053D361914BDB6903F08053BB6083
:102A1800BB680123FB758E4B1B6803F48073002B86
:102A280018D18B4B1B688A4A43F480731360FEF7F6
:102A380055FA386108E0FEF751FA02463B69D31AA5
:102A4800642B01D90323FDE0814B1B6803F48073D9
:102A5800002BF0D07B68DB68012B06D17B4B1B6A0F
:102A68007A4A43F0010313622DE07B68DB68002B90
:102A78000CD1764B1B6A754A23F001031362734B22
:102A88001B6A724A23F0040313621CE07B68DB684C
:102A9800052B0CD16D4B1B6A6C4A43F0040313627F
:102AA8006A4B1B6A694A43F0010313620BE0674BE8
:102AB8001B6A664A23F001031362644B1B6A634A6C
:102AC80023F0040313627B68DB68002B15D0FEF744
:102AD80005FA38610AE0FEF701FA02463B69D31AA3
:102AE80041F28832934201D90323ABE0574B1B6A6A
:102AF80003F00203002BEED014E0FEF7EFF9386183
:102B08000AE0FEF7EBF902463B69D31A41F2883234
:102B1800934201D9032395E04C4B1B6A03F002034F
:102B2800002BEED1FB7D012B05D1484BDB69474AD1
:102B380023F08053D3617B68DB69002B00F0818030
:102B4800424B5B6803F00C03082B61D07B68DB69A0
:102B5800022B46D13F4B00221A60FEF7BFF93861BD
:102B680008E0FEF7BBF902463B69D31A022B01D9EC
:102B7800032367E0354B1B6803F00073002BF0D18B
:102B88007B681B6AB3F5803F08D1304B5B6823F440
:102B980000327B689B682D4913434B602B4B5B6865
:102BA80023F474127B68196A7B685B6A0B432749B4
:102BB80013434B60274B01221A60FEF78FF93861E7
:102BC80008E0FEF78BF902463B69D31A022B01D9BC
:102BD800032337E01D4B1B6803F00073002BF0D074
:102BE8002FE01C4B00221A60FEF778F9386108E0E4
:102BF800FEF774F902463B69D31A022B01D9032365
:102C080020E0124B1B6803F00073002BF0D118E092
:102C18007B68DB69012B01D1012313E00B4B5B6857
:102C2800FB60FB6803F480327B681B6A9A4206D11A
:102C3800FB6803F470127B685B6A9A4201D0012337
:102C480000E0002318461837BD4680BD001002403A
:102C5800007000406000424280B584B000AF7860E8
:102C680039607B68002B01D10123D0E06A4B1B68D7
:102C780003F007033A689A4210D9674B1B6823F0A0
:102C8800070265493B6813430B60634B1B6803F0FD
:102C980007033A689A4201D00123B8E07B681B68B1
:102CA80003F00203002B20D07B681B6803F00403A9
:102CB800002B05D0594B5B68584A43F4E0635360D6
:102CC8007B681B6803F00803002B05D0534B5B6837
:102CD800524A43F460535360504B5B6823F0F00250
:102CE8007B689B684D4913434B607B681B6803F006
:102CF8000103002B40D07B685B68012B07D1474B51
:102D08001B6803F40033002B15D101237FE07B6897
:102D18005B68022B07D1414B1B6803F00073002B43
:102D280009D1012373E03D4B1B6803F00203002B1C
:102D380001D101236BE0394B5B6823F003027B6808
:102D48005B68364913434B60FEF7C8F8F8600AE041
:102D5800FEF7C4F80246FB68D31A41F28832934260
:102D680001D9032353E02D4B5B6803F00C027B6809
:102D78005B689B009A42EBD1274B1B6803F0070363
:102D88003A689A4210D2244B1B6823F00702224962
:102D98003B6813430B60204B1B6803F007033A683A
:102DA8009A4201D0012332E07B681B6803F00403D8
:102DB800002B08D0194B5B6823F4E0627B68DB6862
:102DC800164913434B607B681B6803F00803002B0C
:102DD80009D0124B5B6823F460527B681B69DB00E7
:102DE8000E4913434B6000F021F802460B4B5B6819
:102DF8001B0903F00F030A49CB5C22FA03F3094AC3
:102E08001360094B1B681846FEF726F8002318467E
:102E18001037BD4680BD00BF0020024000100240B0
:102E2800444D0008080000200000002090B48AB03B
:102E380000AF2A4B3C1D0FCB84E80F0040F2012362
:102E48003B800023FB610023BB6100237B620023DE
:102E58007B6100233B62224B5B68FB61FB6903F0EB
:102E68000C03042B02D0082B03D02DE01D4B3B6232
:102E78002DE0FB699B0C03F00F0307F128021344B4
:102E880013F8243C7B61FB6903F48033002B13D0D7
:102E9800134B5B685B0C03F0010307F12802134432
:102EA80013F8283CBB617B690E4A02FB03F2BB693D
:102EB800B2FBF3F37B6204E07B690B4A02FB03F38A
:102EC8007B627B6A3B6202E0064B3B6200BF3B6A67
:102ED80018462837BD4690BC704700BF104D000803
:102EE8000010024000127A0000093D0080B400AFD3
:102EF800024B1B681846BD4680BC7047080000207E
:102F080080B500AFFFF7F2FF0246054B5B681B0A6E
:102F180003F007030349CB5C22FA03F3184680BD8C
:102F280000100240544D000880B500AFFFF7DEFFE7
:102F38000246054B5B68DB0A03F007030349CB5CD9
:102F480022FA03F3184680BD00100240544D0008D1
:102F580080B485B000AF78600A4B1B680A4AA2FBB0
:102F680003235B0A7A6802FB03F3FB6000BFFB687C
:102F78005A1EFA60002BF9D100BF00BF1437BD46B6
:102F880080BC704708000020D34D621080B586B021
:102F980000AF786000233B610023FB607B681B68FF
:102FA80003F00103002B7DD00023FB754F4BDB6939
:102FB80003F08053002B0DD14C4BDB694B4A43F097
:102FC8008053D361494BDB6903F08053BB60BB6816
:102FD8000123FB75464B1B6803F48073002B18D143
:102FE800434B1B68424A43F480731360FDF776FF36
:102FF800386108E0FDF772FF02463B69D31A642B7B
:1030080001D903236DE03A4B1B6803F48073002B4E
:10301800F0D0364B1B6A03F44073FB60FB68002B4F
:103028002ED07B685B6803F44073FA689A4227D015
:103038002E4B1B6A23F44073FB602E4B01221A604F
:103048002C4B00221A60294AFB681362FB6803F0C4
:103058000103002B14D0FDF741FF38610AE0FDF7AA
:103068003DFF02463B69D31A41F28832934201D9A7
:10307800032336E01D4B1B6A03F00203002BEED03E
:103088001A4B1B6A23F440727B685B681749134329
:103098000B62FB7D012B05D1144BDB69134A23F02E
:1030A8008053D3617B681B6803F00203002B08D0B0
:1030B8000E4B5B6823F440427B689B680B491343C3
:1030C8004B607B681B6803F01003002B08D0074B8C
:1030D8005B6823F480027B685B69044913434B6097
:1030E800002318461837BD4680BD00BF00100240B7
:1030F800007000404004424290B58DB000AF786047
:103108006B4B07F10C040FCB84E80F0040F201234E
:103118003B8100237B620023FB6200233B62002388
:10312800FB610023BB627B68013B0F2B00F2B6807A
:1031380001A252F823F000BF2332000889320008A8
:10314800A532000813320008A5320008A53200088D
:10315800A53200081B320008A5320008A532000875
:10316800A5320008A5320008A5320008A5320008DB
:10317800A5320008813100084E4B5B68FB614D4B5E
:103188001B6803F08073002B00F08A80FB699B0C9E
:1031980003F00F0307F13002134413F8243C3B6299
:1031A800FB6903F48033002B18D0424B5B685B0C3F
:1031B80003F0010307F13002134413F8283C7B6243
:1031C800FB6903F48033002B0DD03B4A7B6AB2FBCA
:1031D800F3F23B6A02FB03F3FB6204E03B6A374A03
:1031E80002FB03F3FB62334B5B6803F48003B3F524
:1031F800800F02D1FB6ABB6252E0FB6A5B00304A77
:10320800A2FB03235B08BB624AE0FFF70FFEB8622C
:1032180049E0FFF70BFEB86245E0264B1B6AFB61ED
:10322800FB6903F44073B3F5807F08D1FB6903F0B1
:103238000203002B03D04FF40043BB621FE0FB697D
:1032480003F44073B3F5007F09D11A4B5B6A03F0AE
:103258000203002B03D049F64043BB620FE0FB6931
:1032680003F44073B3F5407F1CD1124B1B6803F481
:103278000033002B16D04FF22443BB6212E011E05A
:10328800FFF752FE02460B4B5B689B0B03F00303F0
:1032980001335B00B2FBF3F3BB6204E000BF02E062
:1032A80000BF00E000BFBB6A18463437BD4690BD7A
:1032B800204D00080010024000127A0000093D006D
:1032C800ABAAAAAA80B582B000AF78607B68002B51
:1032D80001D101233FE07B6893F83930DBB2002B42
:1032E80006D17B68002283F83820786800F008FF50
:1032F8007B68242283F839207B681B68DA687B683E
:103308001B6822F40052DA60786800F069FB7B6879
:103318001B681A697B681B6822F490421A617B68F3
:103328001B685A697B681B6822F02A025A617B680D
:103338001B68DA687B681B6842F40052DA607B68B5
:103348000022DA637B68202283F839207B682022F8
:1033580083F83A20002318460837BD4680BD000090
:1033680080B586B000AFF860B9601346FB80FB6893
:1033780093F83930DBB2202B53D1BB68002B02D035
:10338800FB88002B01D101234CE0FB6893F838300F
:10339800012B01D1022345E0FB68012283F8382084
:1033A800BA68FB681A62FB68FA889A84FB68FA882C
:1033B800DA84FB680022DA63FB68212283F839206B
:1033C800FB681B6B194A9A62FB681B6B184ADA6226
:1033D800FB681B6B174A1A63FB681B6B00225A6356
:1033E80007F108037B61FB68186B7B691968FB6848
:1033F8001B6804331A46FB88FEF730FCFB681B6821
:103408006FF040021A60FB68002283F83820FB68DE
:103418001B685A69FB681B6842F080025A610023E6
:1034280000E0022318461837BD4680BD7D360008E7
:10343800CF360008EB36000880B588B000AF78605A
:103448007B681B681B68FB617B681B68DB68BB616A
:103458007B681B685B697B6100233B610023FB6021
:10346800FB6903F00F033B613B69002B0DD1FB693E
:1034780003F02003002B08D0BB6903F02003002BC6
:1034880003D0786800F02AFACBE03B69002B00F003
:10349800AB807B6903F00103002B05D1BB6903F402
:1034A8009073002B00F0A080FB6903F00103002B50
:1034B8000AD0BB6903F48073002B05D07B68DB6BF3
:1034C80043F001027B68DA63FB6903F00403002B15
:1034D8000AD07B6903F00103002B05D07B68DB6B06
:1034E80043F002027B68DA63FB6903F00203002BF6
:1034F8000AD07B6903F00103002B05D07B68DB6BE6
:1035080043F004027B68DA63FB6903F00803002BCD
:103518000AD07B6903F00103002B05D07B68DB6BC5
:1035280043F008027B68DA637B68DB6B002B77D09B
:10353800FB6903F02003002B07D0BB6903F02003CD
:10354800002B02D0786800F0C9F97B681B685B69BA
:1035580003F04003002B14BF01230023DBB2FB6000
:103568007B68DB6B03F00803002B02D1FB68002BA0
:1035780031D0786800F014F97B681B685B6903F048
:103588004003002B23D07B681B685A697B681B6843
:1035980022F040025A617B685B6B002B13D07B687A
:1035A8005B6B214A5A637B685B6B1846FEF7B6FB78
:1035B8000346002B16D07B685B6B5B6B7A68526B9B
:1035C800104698470EE0786800F04BF80AE07868F3
:1035D80000F047F806E0786800F043F87B680022BE
:1035E800DA631DE000BF1BE0FB6903F08003002BDA
:1035F80008D0BB6903F08003002B03D0786800F083
:1036080000F90EE0FB6903F04003002B09D0BB6909
:1036180003F04003002B04D0786800F047F900E07D
:1036280000BF2037BD4680BDE337000880B483B0B3
:1036380000AF786000BF0C37BD4680BC704780B4CF
:1036480083B000AF786000BF0C37BD4680BC7047C0
:1036580080B483B000AF786000BF0C37BD4680BC33
:10366800704780B483B000AF786000BF0C37BD46A8
:1036780080BC704780B584B000AF78607B685B6AB7
:10368800FB607B681B681B6803F02003002B13D1C9
:10369800FB680022DA84FB681B685A69FB681B68B0
:1036A80022F080025A61FB681B68DA68FB681B68B5
:1036B80042F04002DA6002E0F868FFF7B7FF00BFA7
:1036C8001037BD4680BD80B584B000AF78607B6898
:1036D8005B6AFB60F868FFF7B2FF00BF1037BD46B2
:1036E80080BD80B584B000AF78600023FB607B6844
:1036F8005B6ABB60BB681B685B6903F08003002BD7
:1037080014BF01230023DBB2FB60BB6893F8393098
:10371800DBB2212B08D1FB68002B05D0BB68002247
:10372800DA84B86800F027F8BB681B685B6903F0A7
:103738004003002B14BF01230023DBB2FB60BB68EE
:1037480093F83A30DBB2222B08D1FB68002B05D066
:10375800BB680022DA85B86800F022F8BB68DB6B2A
:1037680043F01002BB68DA63B868FFF77AFF00BF5E
:103778001037BD4680BD80B483B000AF78607B68E9
:103788001B68DA687B681B6822F0C002DA607B6815
:10379800202283F8392000BF0C37BD4680BC704713
:1037A80080B483B000AF78607B681B68DA687B6898
:1037B8001B6822F49072DA607B681B685A697B6820
:1037C8001B6822F001025A617B68202283F83A20A4
:1037D80000BF0C37BD4680BC704780B584B000AFD1
:1037E80078607B685B6AFB60FB680022DA85FB68AF
:1037F8000022DA84F868FFF734FF00BF1037BD46AF
:1038080080BD80B485B000AF78607B6893F83930AC
:10381800DBB2212B44D17B689B68B3F5805F1AD15A
:103828007B681B6AFB60FB681B881A467B681B6801
:10383800C2F308025A607B681B69002B05D17B68BC
:103848001B6A9A1C7B681A620EE07B681B6A5A1C0A
:103858007B681A6208E07B681B6A591C7A681162E7
:103868001A787B681B685A607B68DB8C9BB2013BCB
:103878009BB27A681946D184002B0FD17B681B68EC
:10388800DA687B681B6822F08002DA607B681B6854
:10389800DA687B681B6842F04002DA60002300E0C7
:1038A800022318461437BD4680BC704780B582B0E5
:1038B80000AF78607B681B68DA687B681B6822F059
:1038C8004002DA607B68202283F839207868FFF7A5
:1038D800ADFE002318460837BD4680BD80B584B0CC
:1038E80000AF78607B6893F83A30DBB2222B71D155
:1038F8007B689B68B3F5805F23D17B689B6AFB601C
:103908007B681B69002B0ED17B681B685B689BB2C8
:10391800C3F308039AB2FB681A807B689B6A9A1CF7
:103928007B689A6229E07B681B685B689BB2DBB2A4
:103938009AB2FB681A807B689B6A5A1C7B689A62F9
:103948001BE07B681B69002B0AD17B681B685868E1
:103958007B689B6A591C7A689162C2B21A700CE043
:103968007B681B685B68DAB27B689B6A581C79685D
:10397800886202F07F02D2B21A707B68DB8D9BB23C
:10398800013B9BB27A681946D185002B20D17B6810
:103998001B68DA687B681B6822F02002DA607B68A3
:1039A8001B68DA687B681B6822F48072DA607B68BF
:1039B8001B685A697B681B6822F001025A617B68A0
:1039C800202283F83A207868FFF742FE002302E0BD
:1039D800002300E0022318461037BD4680BD0000D2
:1039E80080B584B000AF78607B681B681B6923F4DE
:1039F80040517B68DA687B681B680A431A617B68F8
:103A08009A687B681B691A437B685B691343FB6090
:103A18007B681B68DB6823F4B05323F00C037A68D7
:103A28001268F9680B43D3607B681B685B6923F4F1
:103A380040717B689A697B681B680A435A617B6896
:103A48001B68524A93424ED1FFF76EFAB860BA68C3
:103A580013469B0013449A001A447B685B689B00DA
:103A6800B2FBF3F34A4AA2FB03235B091901BA68C4
:103A780013469B0013449A001A447B685B689B00BA
:103A8800B2FBF3F2424BA3FB02035B09642000FB89
:103A980003F3D31A1B0132333D4AA2FB03235B090C
:103AA80003F0F0031944BA6813469B0013449A00C4
:103AB8001A447B685B689B00B2FBF3F2344BA3FBB0
:103AC80002035B09642000FB03F3D31A1B013233A2
:103AD8002F4AA2FB03235B0903F00F027B681B68D4
:103AE8000A449A604DE0FFF70BFAB860BA681346CB
:103AF8009B0013449A001A447B685B689B00B2FBE6
:103B0800F3F3234AA2FB03235B091901BA6813469E
:103B18009B0013449A001A447B685B689B00B2FBC5
:103B2800F3F21B4BA3FB02035B09642000FB03F3C6
:103B3800D31A1B013233164AA2FB03235B0903F095
:103B4800F0031944BA6813469B0013449A001A44B8
:103B58007B685B689B00B2FBF3F20D4BA3FB02038F
:103B68005B09642000FB03F3D31A1B013233084AB4
:103B7800A2FB03235B0903F00F027B681B680A445E
:103B88009A6000BF1037BD4680BD00BF00380140B5
:103B98001F85EB510000000080B5B6B000AFFDF7FF
:103BA80045F900F09FF800F0BBF900F093F900F038
:103BB800EBF800F027F900F063F9434BC7F8D4306D
:103BC8004248FDF7A3FA4248FDF7A0FA64213F48AE
:103BD800FDF74AFB64213E48FDF746FB3B48FDF7ED
:103BE80017FE034603F40073002B4AD03748FDF74D
:103BF80035FCC7F8D000D7F8D000FDF799F8034690
:103C0800D7F8D4101846FCF70BFB03461846FCF708
:103C18001FFD02460B4628A1D1E90001FCF7B8FBBD
:103C280002460B461046194625A3D3E90023FCF7A4
:103C380091FE02460B46104619464FF00002254BEE
:103C4800FCF7A8FB02460B4610461946FCF76AFF2C
:103C58000346C7F8CC303B1DC8220021184600F0A7
:103C680005FCD7F8CC00FDF7BBF802463B1D1A4906
:103C7800184600F003FC3B1D322219461748FFF78F
:103C88006FFB1348FDF7EAFB034640F6B732934251
:103C980005D8012220211248FEF746FD04E0002243
:103CA80020210F48FEF740FD4FF47A70FDF720F908
:103CB80086E700BFAFF30080E17A14AE47E1F63F34
:103CC80022FDF675E09C713F3333533A9000002093
:103CD800C000002000003940304D0008F0000020EE
:103CE800000C014080B596B000AF07F130032822E0
:103CF8000021184600F0BAFB07F11C0300221A60E5
:103D08005A609A60DA601A613B1D00221A605A6094
:103D18009A60DA601A615A6102233B6301233B64AB
:103D280010237B640023FB6407F130031846FEF779
:103D380013FD0346002B01D000F048F90F23FB6167
:103D480000233B6200237B620023BB620023FB62EB
:103D580007F11C0300211846FEF77EFF0346002BDF
:103D680001D000F033F902237B600023FB603B1D88
:103D78001846FFF70BF90346002B01D000F026F98F
:103D880000BF5837BD4680BD80B584B000AF3B1D2D
:103D980000221A605A609A60184B194A1A60174B29
:103DA80000229A60154B00221A73144B00221A75D0
:103DB800124B4FF46022DA61104B00225A600F4B0D
:103DC80001221A610D48FDF7B7F80346002B01D010
:103DD80000F0FCF810237B600123BB600023FB602C
:103DE8003B1D19460548FDF71BFC0346002B01D077
:103DF80000F0ECF800BF1037BD4680BD90000020F1
:103E08000024014080B584B000AF3B1D00221A6039
:103E18005A609A60184B194A1A60174B00229A6028
:103E2800154B00221A73144B00221A75124B4FF4CB
:103E38006022DA61104B00225A600F4B01221A618E
:103E48000D48FDF779F80346002B01D000F0BEF8C5
:103E580006237B600123BB600023FB603B1D1946E2
:103E68000548FDF7DDFB0346002B01D000F0AEF856
:103E780000BF1037BD4680BDC0000020003C014097
:103E880080B500AF114B124A1A60104B4FF4E13263
:103E98005A600E4B00229A600C4B0022DA600B4BE2
:103EA80000221A61094B0C225A61084B00229A61C0
:103EB800064B0022DA610548FFF704FA0346002B97
:103EC80001D000F083F800BF80BD00BFF0000020E3
:103ED8000038014080B582B000AF104B5B690F4AD3
:103EE80043F0010353610D4B5B6903F001037B60F1
:103EF8007B68002200210E20FDF703FE0E20FDF74F
:103F08001CFE002200210F20FDF7FBFD0F20FDF70E
:103F180014FE00BF0837BD4680BD00BF0010024038
:103F280080B588B000AF07F1100300221A605A600C
:103F38009A60DA60234B9B69224A43F040039361FD
:103F4800204B9B6903F04003FB60FB681D4B9B699A
:103F58001C4A43F0800393611A4B9B6903F080036A
:103F6800BB60BB68174B9B69164A43F00403936117
:103F7800144B9B6903F004037B607B68114B9B69BE
:103F8800104A43F0080393610E4B9B6903F0080342
:103F98003B603B68002220210B48FEF7C5FB20232D
:103FA8003B6101237B610023BB610223FB6107F1B5
:103FB800100319460448FEF723FA00BF2037BD4610
:103FC80080BD00BF00100240000C014080B400AF6B
:103FD80000BFBD4680BC704780B485B000AF154BAC
:103FE8009B69144A43F001039361124B9B6903F0E8
:103FF8000103BB60BB680F4BDB690E4A43F080537B
:10400800D3610C4BDB6903F080537B607B680A4B00
:104018005B68FB60FB6823F0E063FB60FB6843F0D0
:104028000073FB60044AFB68536000BF1437BD4649
:1040380080BC7047001002400000014080B58AB083
:1040480000AF786007F1180300221A605A609A607E
:10405800DA607B681B68264A934214D1254B9B691A
:10406800244A43F400739361224B9B6903F4007361
:104078007B617B69002200211220FDF742FD12209E
:10408800FDF75BFD2FE07B681B681B4A93422AD132
:10409800184B9B69174A43F400439361154B9B697E
:1040A80003F400433B613B69124B9B69114A43F09F
:1040B800800393610F4B9B6903F08003FB60FB68EF
:1040C8004FF48073BB610323FB6107F118031946A2
:1040D8000A48FEF795F9002200212F20FDF711FD6F
:1040E8002F20FDF72AFD00BF2837BD4680BD00BF41
:1040F8000024014000100240003C0140001C014027
:1041080080B588B000AF786007F1100300221A600C
:104118005A609A60DA607B681B68474A934240F0AD
:104128008680464B9B69454A43F480439361434BE1
:104138009B6903F48043FB60FB68404B9B693F4AE3
:1041480043F0040393613D4B9B6903F00403BB6098
:10415800BB684FF400733B6102237B610323FB615F
:1041680007F1100319463648FEF74AF94FF4806301
:104178003B6100237B610023BB6107F110031946F3
:104188002F48FEF73DF92F4B2F4A1A602D4B00227E
:104198005A602C4B00229A602A4B8022DA60294B05
:1041A80000221A61274B00225A61264B00229A618D
:1041B800244B0022DA612348FDF7DAFC0346002B82
:1041C80001D0FFF703FF7B681E4A5A631D4A7B68CC
:1041D80053621E4B1E4A1A601C4B10225A601B4B1E
:1041E80000229A60194B8022DA60184B00221A616B
:1041F800164B00225A61154B00229A61134B00227C
:10420800DA611248FDF7B4FC0346002B01D0FFF732
:10421800DDFE7B680D4A1A630C4A7B6853620022F4
:1042280000212520FDF76DFC2520FDF786FC00BF49
:104238002037BD4680BD00BF003801400010024055
:10424800000801403001002058000240740100209D
:104258004400024080B400AF00BFBD4680BC704738
:1042680080B400AFFEE780B400AFFEE780B400AFD3
:10427800FEE780B400AFFEE780B400AF00BFBD46E4
:1042880080BC704780B400AF00BFBD4680BC70479B
:1042980080B400AF00BFBD4680BC704780B500AF9A
:1042A800FCF70AFE00BF80BD80B500AF0248FDF7ED
:1042B8003DFE00BF80BD00BF7401002080B500AF87
:1042C8000248FDF733FE00BF80BD00BF300100206B
:1042D80080B500AF0248FDF7CDF800BF80BD00BF34
:1042E8009000002080B500AF0248FFF7A5F800BF96
:1042F80080BD00BFF000002080B500AF0248FDF788
:10430800B9F800BF80BD00BFC000002080B584B0F0
:1043180000AF7860114B1B68002B02D10F4B104A7D
:104328001A600E4B1B68FB600C4B1A687B681344C1
:104338006A46934207D900F06FF803460C221A60C8
:104348004FF0FF3306E0054B1A687B681344034AB5
:104358001360FB6818461037BD4680BDB8010020C1
:10436800D801002080B400AF154B1B68144A43F0F5
:1043780001031360124B5A681149124B13404B60EA
:104388000F4B1B680E4A23F0847323F480331360A9
:104398000B4B1B680A4A23F480231360084B5B68A5
:1043A800074A23F4FE035360054B4FF41F029A603B
:1043B800054B4FF000629A6000BFBD4680BC704755
:1043C800001002400000FFF800ED00E0002103E0CB
:1043D8000B4B5B58435004310A480B4B42189A4226
:1043E800F6D30A4A02E0002342F8043B084B9A42FB
:1043F800F9D3FFF7B7FF00F015F8FFF7CDFB7047CB
:10440800984D000800000020700000207000002077
:10441800D4010020FEE70000014B1868704700BF78
:104428000C00002070B500260C4D0D4C641BA41028
:10443800A64209D100F05CFC00260A4D0A4C641B18
:10444800A410A64205D170BD55F8043B9847013623
:10445800EEE755F8043B98470136F2E7904D00081F
:10446800904D0008904D0008944D00080346024402
:10447800934200D1704703F8011BF9E70EB46FF0BF
:10448800004100B59CB01DAB0290069007910491C5
:104498000848094953F8042B0591006802A90193BB
:1044A80000F068F80022029B1A701CB05DF804EB5B
:1044B80003B070470C0000200802FFFF2DE9F04709
:1044C8008E6882469E420C4690461F4638D88A8996
:1044D80012F4906F32D0256809690133A5EB010900
:1044E80065694B4405EB450505EBD5756D109D4297
:1044F80038BF1D46530531D5294600F053FB064603
:1045080050B90C234FF0FF30CAF80030A38943F0AC
:104518004003A381BDE8F0874A46216900F0CEFA3E
:10452800A38923F4906343F08003A38126614E445A
:1045380026603E466561A5EB0905A560BE4200D927
:104548003E4632464146206800F0C6FAA368226813
:104558009B1B32440020A3602260DBE72A4600F060
:104568007BFB06460028E1D15046216900F0CEFACF
:10457800C7E700002DE9F04F98468B8907461B06D0
:104588000D4614469DB00ED50B6963B9402100F065
:1045980009FB2860286120B90C233B604FF0FF30ED
:1045A800D1E040236B610023099320238DF8293043
:1045B80030234FF00109CDF80C80DFF8A4818DF885
:1045C8002A3023469A4613F8012B0AB1252AF9D135
:1045D800BAEB040B0BD05B46224629463846FFF758
:1045E8006DFF013000F0AA80099A5A4409929AF89E
:1045F8000030002B00F0A28000234FF0FF32CDE9FD
:1046080005230AF1010A049307938DF853301A938E
:104618005446052214F8011B514800F041FA049A47
:10462800D8B9D00644BF20238DF85330110744BFB2
:104638002B238DF853309AF800302A2B15D0544686
:1046480000204FF00A0C079A214611F8013B303B35
:10465800092B4ED9B0B1079214E0A0EB080309FA70
:1046680003F31343A2460493D2E7039B191D1B6867
:104678000391002BBBBF5B4242F0020207930793F2
:10468800B8BF049223782E2B0CD163782A2B35D10E
:10469800039B02341A1D1B680392002BB8BF4FF00E
:1046A800FF330593DFF8C8A003225046217800F0B5
:1046B800F7F940B14023A0EB0A0003FA00F0049B8D
:1046C80001340343049314F8011B062225488DF88E
:1046D800281000F0E5F9002838D0234B1BBB039BBA
:1046E800073323F0070308330393099B33440993E3
:1046F80067E70C4601200CFB0232A5E700234FF0C8
:104708000A0C194601340593204610F8012B303A5B
:10471800092A03D9002BC5D00591C3E70446012314
:104728000CFB0121F0E703AB00932A4638460F4BF8
:1047380004A9AFF30080421C0646D6D1AB895B06BC
:104748003FF52CAF09981DB0BDE8F08F03AB00937F
:104758002A463846054B04A900F07CF8EBE700BF71
:104768005C4D0008664D000800000000C5440008C4
:10477800624D00082DE9F047164699468A680B698C
:1047880007469342B8BF1346336091F843200C465E
:10479800DDF820800AB1013333602368990642BFEF
:1047A800336802333360256815F0060506D104F135
:1047B800190AE36832689B1AAB4228DC94F8432054
:1047C800131E226818BF012392062DD44946384685
:1047D80004F14302C047013020D02368E56803F0A4
:1047E8000603042B18BF002532684FF00006A368A3
:1047F80008BFAD1A226908BF25EAE5759342C4BF10
:104808009B1AED181A34B5421AD1002008E001238A
:10481800524649463846C047013003D14FF0FF3071
:10482800BDE8F0870135C4E73020E11881F843007E
:104838005A1C94F845102244023382F84310C5E705
:104848000123224649463846C0470130E6D00136A2
:10485800D9E700002DE9FF470C46277E9146782FBF
:1048680080469A460C9904F1430207D8622F0AD869
:10487800002F00F0D980582F00F0A48004F14206E0
:1048880084F842703AE0A7F16303152BF6D801A02B
:1048980050F823F0F5480008094900088548000841
:1048A8008548000885480008854800080949000827
:1048B800854800088548000885480008854800089C
:1048C800174A000839490008F949000885480008CE
:1048D80085480008394A0008854800083949000811
:1048E8008548000885480008014A00080B6804F15B
:1048F80042061A1D1B680A6084F842300123A4E0AE
:10490800256808682E0600F104030AD505680B60BF
:10491800002D03DA2D236D4284F843300A235E48C4
:1049280019E015F0400F05680B6018BF2DB2EFE7CE
:104938000B682568181D0860280601D51D6802E067
:104948006906FBD51D886F2F0CBF08230A23524820
:10495800002184F843106668002EA8BF2168A6606D
:10496800A4BF21F0040121600DB9002E4DD01646D8
:10497800B5FBF3F103FB1157C75D06F8017D2F4620
:10498800BB420D46F4D9082B0BD12368DF0708D5A5
:10499800236961689942DEBF302306F8013C06F1BD
:1049A800FF36921B22614B4621464046CDF800A0B7
:1049B80003AAFFF7DFFE01304CD14FF0FF3004B0FF
:1049C800BDE8F087344884F845700E68236856F8C7
:1049D800045B1F060E6014D5D90744BF43F02003BB
:1049E80023601DB9236823F0200323601023AFE759
:1049F800236843F0200323607823284884F845304F
:104A0800E3E75E0648BFADB2E6E71646BBE70B68CC
:104A180026681D1D60690D6035061B6801D5186084
:104A280002E07106FBD51880002316462361BAE719
:104A38000B681A1D0A601E6800213046626800F083
:104A48002FF808B1801B606063682361002384F835
:104A58004330A8E73246494640462369D0470130EB
:104A6800ABD023689B0713D4E068039B9842B8BF78
:104A78001846A4E70123324649464046D04701304C
:104A88009BD00135E36803995B1AAB42F2DCEBE794
:104A9800002504F11906F5E76D4D00087E4D000864
:104AA800034610B5C9B202449342184601D100200A
:104AB80003E0047801338C42F6D110BD0A449142D8
:104AC80000F1FF3300D1704710B511F8014B914246
:104AD80003F8014FF9D110BD884210B501EB02046B
:104AE80002D98442234607D8431EA14208D011F8B0
:104AF800012B03F8012FF8E7014602448A4200D14E
:104B080010BD13F8014D02F8014DF7E738B5054619
:104B1800002943D051F8043C0C1F002BB8BFE418FF
:104B280000F0D0F81E4A1368104633B96360146069
:104B38002846BDE8384000F0CBB8A3420AD921681E
:104B48006218934201BF1A685B685218226063605A
:104B58000460EDE71A465B680BB1A342FAD9116805
:104B68005018A0420BD120680144501883421160AC
:104B7800DED118685B68014411605360D8E702D938
:104B88000C232B60D4E7206821188B4201BF1968D9
:104B98005B680918216063605460C9E738BD00BFCD
:104BA800BC010020F8B5CD1C25F0030508350C2DF7
:104BB80038BF0C25002D064601DBA94203D90C237A
:104BC80033600020F8BD00F07DF821490A681446DA
:104BD8009CB9204F3B6823B92146304600F062F863
:104BE80038602946304600F05DF8431C23D10C2379
:104BF8003046336000F06CF8E3E723685B1B17D49A
:104C08000B2B03D923601C44256004E06368A2428F
:104C18000CBF0B605360304600F05AF804F10B00EB
:104C2800231D20F00700C21ACCD01B1AA350C9E7D5
:104C380022466468CCE7C41C24F00304A042E3D0F5
:104C4800211A304600F02EF80130DDD1CFE700BF41
:104C5800BC010020C0010020F8B5074614460E46E6
:104C680021B91146BDE8F840FFF79CBF22B9FFF70C
:104C78004DFF25462846F8BD00F030F8A0420FD277
:104C880021463846FFF78EFF05460028F2D0314608
:104C98002246FFF713FF31463846FFF737FFE9E7AB
:104CA8003546E7E738B50023054D044608462B602E
:104CB800FFF72CFB431C02D12B6803B1236038BDDE
:104CC800C4010020014800F011B800BFCC01002049
:104CD800014800F00CB800BFCC01002051F8043C9A
:104CE800181F002BBCBF0B58C0187047704770477F
:104CF800F8B500BFF8BC08BC9E467047F8B500BFC1
:084D0800F8BC08BC9E46704790
:104D100002030405060708090A0B0C0D0E0F1010FC
:104D200002030405060708090A0B0C0D0E0F1010EC
:104D300074656D70657261747572653A25640D0AEB
:104D40000000000000000000000000000102030459
:104D5000060708090000000001020304232D302B80
:104D60002000686C4C00656667454647003031326C
:104D700033343536373839414243444546003031C3
:104D80003233343536373839616263646566000022
:044D90000D02000808
:044D9400E901000829
:104D980010000000010000000024F40010000020B2
:104DA80000000000000000000000000000000000FB
:104DB80000000000000000000000000000000000EB
:104DC80000000000000000000000000000000000DB
:104DD80000000000000000000000000000000000CB
:104DE80000000000000000000000000000000000BB
:104DF80000000000000000000000000000000000AB
:04000005080043D5D7
:00000001FF
